:020000040800F2
:10000000202100208D0100088901000889010008D5
:10001000890100088901000889010008000000002A
:10002000000000000000000000000000890100083E
:10003000890100080000000089010008890100080A
:100040008901000889010008890100088901000868
:100050008901000889010008890100088901000858
:100060008901000889010008890100088901000848
:100070008901000889010008890100088901000838
:100080008901000889010008890100088901000828
:100090008901000889010008890100088901000818
:1000A0008901000889010008890100088901000808
:1000B00089010008890100088901000889010008F8
:1000C00089010008890100088901000889010008E8
:1000D00089010008890100088901000889010008D8
:1000E00089010008890100088901000889010008C8
:1000F00089010008890100088901000851270008CA
:1001000089010008890100088901000889010008A7
:100110008901000889010008890100088901000897
:100120008901000889010008890100088901000887
:100130008901000889010008890100088901000877
:100140008901000889010008890100088D0C010857
:100150008901000889010008890100088901000857
:100160008901000889010008890100088901000847
:100170008901000889010008890100088901000837
:08018000890100088901000853
:10018800FEE700BF08B50C480C4B984207D2C243A3
:100198001A4422F003020432094914F007FA094804
:1001A80009494FF000028842B8BF40F8042BFADB37
:1001B800BDE8084014F0D8B9000000202401002050
:1001C800C87A010824210020200D0120354B36482B
:1001D8001A68002142F001021A6099601A6822F038
:1001E800847222F480321A6058601A6882B022F44D
:1001F80080221A60D960009101911A6842F4803215
:100208001A601A4603E0009BB3F5A06F09D0136883
:1002180003F400330193009B01330093019B002BEF
:10022800F1D0204B1B6813F4003318BF012301934E
:10023800019B012B05D01D4B4FF000629A6002B064
:100248007047184B1A491A6C1A4842F080521A64BF
:100258000A6842F480420A609A689A609A6842F48E
:1002680000429A609A6842F4A0529A6058601A68EC
:1002780042F080721A601A689201FCD50E49094A48
:1002880040F205600860996821F003019960996857
:1002980041F002019960936803F00C03082BFAD12E
:1002A800C9E700BF003802401030002400ED00E02C
:1002B8000070004008544007003C0240154A93680B
:1002C80003F00C03042B23D0082B09D0124B114A3E
:1002D80012499268C2F303128A5CD3400B617047DB
:1002E8005068516852684302C2F3881201F03F0116
:1002F8004CBF0B4B084BB3FBF1F303FB02F3054A6E
:100308005268C2F3014201325200B3FBF2F3DEE756
:10031800034BDCE7003802400024F4000000002012
:1003280000127A0040F0BF60024B40F40030D86001
:10033800704700BF00ED00E0C3785BB9037816484A
:100348005A09203203F01F03012101FA03F340F890
:1003580022307047114A70B4D268437886780178A1
:100368000D48D243C2F30222C2F10405EDB20F24B4
:10037800AB4044FA02F23240DBB2134344181B018B
:1003880001F01F0501224909DBB2AA4084F80033B5
:1003980070BC40F82120704700E100E000ED00E06B
:1003A80021F0604121F07F01014B014399607047C2
:1003B80000ED00E029B9054A136923EA000010613D
:1003C8007047024B1A6910431861704700ED00E04E
:1003D800044A136804280CBF43F0040323F0040301
:1003E8001360704710E000E002683749002310B43A
:1003F80022F0010221248842026003604360836086
:10040800C360036144614DD0304B984235D0304BC6
:10041800984239D02F4B98423DD02F4B984247D025
:100428002E4B984248D02E4B98421DD02D4B9842C7
:100438001ED02D4B984243D02C4B98421DD02C4BAC
:10044800984221D02B4B984225D02B4B98422FD045
:100458002A4B984230D02A4B984205D0294B9842D3
:1004680006D05DF8044B7047274A43F8942CF8E708
:100478004FF03D5243F8AC2CF3E74FF4746243F865
:10048800202C5DF8044B70474FF4741243F8382C55
:100498005DF8044B70474FF0746243F8502C5DF8D8
:1004A800044B7047194B5DF8044B3D229A60704726
:1004B800174A43F8642CD4E7164A43F87C2CD0E753
:1004C8003D2243F8082CCCE7106002402860024027
:1004D80040600240586002407060024088600240FC
:1004E800A0600240B86002401064024028640240E4
:1004F80040640240586402407064024088640240CC
:10050800A0640240B864024000003D200060024040
:100518003D000020400F00200B68CA69F0B4CE6887
:100528004D698C690F6A33432B4323434E6A8D6AA6
:100538004C6B13433B4333438A6B07680B4E2B4387
:1005480023433E4013433343CD6A036042690B6B38
:100558000E694C6889682B4322F0070213434361F4
:1005680046608460C160F0BC704700BF3F801CF0EB
:100578000023036043608360C36003614361836158
:10058800C361036243628362C36203634363836339
:10059800704700BF036819B923F00103036070476F
:1005A80043F0010303607047036819B923F400435B
:1005B8000360704743F4004303607047036819B948
:1005C80023F020030360704743F020030360704763
:1005D80041607047406880B2704700BF036822B925
:1005E80023F4002303600161704743F40023036090
:1005F80001617047036819B923F4802303607047C9
:1006080043F48023036070470AB9C16070470161F1
:10061800704700BF0068C0F3C0407047006800F032
:1006280001007047406900F0380070470B4B0C4AD6
:1006380010B40C4CA04294BF184610468B004CBF17
:10064800436803685DF8044B21F0F02121F0821122
:10065800194214BF01200020704700BF006002400B
:10066800006402400F64024010B4094B094C0A4A66
:10067800A04294BF1846104611F0005F21F0F02107
:1006880021F0821114BFC16081605DF8044B70478E
:10069800006002400F640240006402400B060CD563
:1006A8004369AAB143F08003802943610FD00368EE
:1006B80001F01E01194301607047802907D0002A04
:1006C800F5D1036801F01E0123EA010101607047BA
:1006D80023F0800380294361F3D1704730B4114B74
:1006E800114D124A21F0F02424F0C314A84298BFF7
:1006F8001A469CB1006800EAD12000F01E03880069
:100708004CBF5068106821F0F02121F08211084098
:1007180002D0181C18BF012030BC7047436903F091
:100728008003ECE7006002400F640240006402406E
:1007380010B4094B094C0A4AA04294BF1846104607
:1007480011F0005F21F0F02121F0821114BFC16087
:1007580081605DF8044B7047006002400F640240FE
:100768000064024008B53C4B984224D03B4B984269
:100778002BD03B4B984232D03A4B984239D03A4B27
:10078800984240D0394B984247D0394B98424ED086
:10079800384B984255D0384B984200D008BD0121BB
:1007A8004FF4807000F0C0FC00214FF48070BDE869
:1007B800084000F0B9BC0121084600F0B5FC002152
:1007C8000120BDE8084000F0AFBC0121022000F084
:1007D800ABFC00210220BDE8084000F0A5BC0121C7
:1007E800042000F0A1FC00210420BDE8084000F02E
:1007F8009BBC0121082000F097FC00210820BDE8DF
:10080800084000F091BC0121102000F08DFC00216F
:100818001020BDE8084000F087BC0121202000F02E
:1008280083FC00212020BDE8084000F07DBC0121A8
:10083800402000F079FC00214020BDE8084000F08D
:1008480073BC0121802000F06FFC00218020BDE8EE
:10085800084000F069BC00BF0000024000040240EC
:1008680000080240000C0240001002400014024040
:1008780000180240001C02400020024000222DE91E
:10088800F0471346D1F800E001274FF0030C04E0CD
:100898000133102B02F1020229D007FA03F434EADB
:1008A8000E05F5D1D0F800800E790CFA02F5ED436B
:1008B80008EA0508C0F80080D0F800A006FA02F996
:1008C800013E49EA0A09012E0CFA02F8C0F8009024
:1008D8000FD9C568CC7925EA0805C560C568944074
:1008E80001332C43102BC46002F10202D5D1BDE8BC
:1008F800F087D0F808904E7905EA09058560D0F8A8
:1009080008908D79964046EA09068660466826EA88
:1009180004044460466805FA03F4A4B2344344600E
:10092800D7E700BF4FF6FF72002380E80C0070473E
:1009380082B04FF480330193019B0B430193019BD9
:10094800C361C161019BC361C3690193C369019319
:1009580002B070470369194214BF01200020704794
:10096800006980B2704700BF4369194214BF012073
:1009780000207047406980B2704700BF018370470C
:10098800418370470AB9418370470183704700BFAC
:10099800416170474369594041617047CB0800EB9A
:1009A800830001F0070110B4036A89000F248C400A
:1009B80023EA04030362036A5DF8044B02FA01F1B7
:1009C80019430162704700BF08B5174B984212D00F
:1009D800164B98421BD0164B984200D008BD0121F7
:1009E8004FF4000000F0C4FB00214FF40000BDE804
:1009F800084000F0BDBB01214FF4001000F0B8FB27
:100A080000214FF40010BDE8084000F0B1BB0121FF
:100A18004FF4800000F0ACFB00214FF48000BDE8EB
:100A2800084000F0A5BB00BF00540040005800403B
:100A3800005C0040F0B5044685B068460E46A588BF
:100A480000F0C4FA0298314A3368DFF8C8E0A2FB24
:100A5800001225F03F05910C2D042D0C8FB23D435B
:100A6800A580228822F001021204120C734522800C
:100A780023D85B00B0FBF3F39BB20137042B38BFDC
:100A880004232784A3832188B0887789B28935898C
:100A980089B241F001012180238823F4816323F086
:100AA80002031B0440EA07011B0C0B432A439BB2B9
:100AB80092B22380228105B0F0BDF5884BF6FF7213
:100AC80095421DD003EB830303EB8303B0FBF3F3E1
:100AD8009BB243F48043C3F30B020AB943F001030A
:100AE8004FF496720A4802FB01F280FB0201D2170A
:100AF800C2EBA112013292B243F400432284C1E74F
:100B080003EB4303B0FBF3F39BB2E4E783DE1B4341
:100B1800D34D6210A0860100002310B44BF6FF717C
:100B280041F288344FF480420460C180828183801E
:100B3800038143815DF8044B704700BF038829B9DE
:100B480023F001031B041B0C038070479BB243F086
:100B580001030380704700BF038829B923F4807319
:100B68001B041B0C038070479BB243F48073038003
:100B7800704700BF038829B923F400731B041B0CBA
:100B8800038070479BB243F400730380704700BF33
:100B980022B901F0FE0189B20182704741F00101DA
:100BA80089B20182704700BF038829B923F48063A2
:100BB8001B041B0C038070479BB243F480630380C3
:100BC800704700BF83899BB201F0FE0123F0FE034A
:100BD8000B438381704700BF838929B923F0010340
:100BE8001B041B0C838170479BB243F00103838174
:100BF800704700BF038829B923F040031B041B0C6E
:100C0800038070479BB243F040030380704700BFE6
:100C1800038819B9C3F30E03038070476FEA43438F
:100C28006FEA53439BB20380704700BF038829B122
:100C380023F080031B041B0C038070479BB243F016
:100C480080030380704700BFB1F5804F838B05D0C8
:100C580023F480431B041B0C838370479BB243F42B
:100C680080438383704700BFB1F5006F038805D0C8
:100C780023F400631B041B0C038070479BB243F4EE
:100C880000630380704700BFB1F5005F038805D09B
:100C980023F400531B041B0C038070479BB243F4DE
:100CA80000530380704700BF038829B923F010035D
:100CB8001B041B0C038070479BB243F01003038096
:100CC800704700BF01827047008AC0B2704700BFFA
:100CD800038829B923F480531B041B0C0380704735
:100CE8009BB243F480530380704700BFB1F5006F97
:100CF800038805D023F400631B041B0C0380704792
:100D08009BB243F400630380704700BF038829B98E
:100D180023F020031B041B0C038070479BB243F095
:100D280020030380704700BF008BC0F30720704783
:100D3800838829B923F400631B041B0C8380704744
:100D48009BB243F400638380704700BF838829B94E
:100D580023F480531B041B0C838070479BB243F41D
:100D680080538380704700BF82B0002301930190B5
:100D7800019B19440191019B188880B202B0704709
:100D880083889BB21AB923EA01018180704719430D
:100D980081807047838A008B9BB243EA004321F02D
:100DA8007F401840401AB0FA80F04009704700BFF1
:100DB800838A028B98B240EA024020F07F40704755
:100DC80082B000230A0F0093019301900092009BC8
:100DD80021F07F4153B1019B14330193019B1B68A0
:100DE800194214BF0120002002B07047019B18333C
:100DF800090C0193F2E700BFC94389B281827047A9
:100E08008388808A80B208409BB206D003F4E063EE
:100E180013EA114314BF012000207047C94389B267
:100E2800818270470A4B0B481A68002142F0010280
:100E38001A6099601A6822F0847222F480321A606B
:100E480058601A6822F480221A60D960704700BF7F
:100E58000038024010300024024B00221A7018702B
:100E6800704700BF0238024082B000230A4A01934B
:100E780002E0B3F5A06F08D0136813F4003F019B9C
:100E880003F101030193019BF3D0034B1868C0F3EE
:100E9800404002B0704700BF00380240034A136860
:100EA80023F0F80343EAC00010607047003802409E
:100EB800014B1860704700BF00004742064B0022F4
:100EC80001281A701A7005D0042802D105221A7058
:100ED800704770471870704770380240014B1860AF
:100EE800704700BF800E474230B4029C064D40EA6E
:100EF80004605B080843013B40EA821040EA034073
:100F0800686030BC704700BF00380240014B186071
:100F1800704700BF600047420907034B41EA801150
:100F2800C3F88410704700BF00380240014B1860B6
:100F3800704700BF68004742014B1860704700BF08
:100F48004C004742034A936823F0EC63194301437A
:100F58009160704700380240034A936823F0784351
:100F6800194301439160704700380240034A93686F
:100F780023F0030318439060704700BF0038024015
:100F8800024B986800F00C00704700BF0038024020
:100F9800034A936823F0F00318439060704700BF3A
:100FA80000380240034A936823F4E05318439060E2
:100FB800704700BF00380240034A936823F4604337
:100FC80043EAC00090607047003802401F4A9368A7
:100FD80003F00C03042B10B41BD0082B1CD01C4BA3
:100FE80003601A4A1B499468C4F303140C5DE34078
:100FF80043609468C4F382240C5D23FA04F484608B
:1010080092685DF8044BC2F342328A5CD340C360F5
:101018007047114B0360E4E75468516852686302F3
:10102800C2F3881201F03F014CBF0B4B084BB3FBD6
:10103800F1F303FB02F3054A5268C2F3014201329D
:101048005200B3FBF2F30360CBE700BF0038024065
:101058000024F4001400002000127A0000F4407309
:10106800B3F5407F09D108498A6820F0704322F41B
:10107800F81223F4407313438B60034B1A6FC0F3C9
:101088000B0010431867704700380240014B186086
:10109800704700BF3C0E4742014B1860704700BFC5
:1010A800400E4742014B1860704700BF5C01474241
:1010B800044A136B19B923EA0000106370471843F8
:1010C8001063704700380240044A536B19B923EA89
:1010D800000050637047184350637047003802405F
:1010E800044A936B19B923EA0000906370471843C8
:1010F8009063704700380240044A136C19B923EA18
:1011080000001064704718431064704700380240AC
:10111800044A536C19B923EA000050647047184315
:101128005064704700380240044A136919B923EA29
:101138000000106170471843106170470038024082
:10114800044A536919B923EA0000506170471843EB
:101158005061704700380240044A936919B923EA7C
:101168000000906170471843906170470038024052
:10117800044A136A19B923EA000010627047184339
:101188001062704700380240044A536A19B923EACA
:1011980000005062704718435062704700380240A0
:1011A800044A136D19B923EA000010657047184303
:1011B8001065704700380240044A536D19B923EA94
:1011C800000050657047184350657047003802406A
:1011D800044A936D19B923EA0000906570471843D3
:1011E8009065704700380240044A136E19B923EA23
:1011F80000001066704718431066704700380240B8
:10120800044A536E19B923EA000050667047184320
:101218005066704700380240044A137819B923EA27
:101228000000107070471843107070470D38024066
:101238004309012B0BD0022B094B0CBF1B6F5B6FB3
:1012480000F01F0023FA00F000F001007047044B83
:101258001B6800F01F0023FA00F000F0010070473F
:1012680000380240024A536F43F080735367704757
:1012780000380240034BDB68184214BF01200020ED
:10128800704700BF00380240014B1870704700BF1C
:101298000E38024008B5174B984212D0164B9842A8
:1012A8001BD0164B984200D008BD01214FF40040D6
:1012B800FFF75EFF00214FF40040BDE80840FFF74C
:1012C80057BF01214FF48050FFF75EFF00214FF414
:1012D8008050BDE80840FFF757BF01214FF4804018
:1012E800FFF746FF00214FF48040BDE80840FFF7B4
:1012F8003FBF00BF0030014000380040003C0040C4
:101308000A884B88F0B48F88CD880C894E8913439E
:101318003B432B4323438D89CC890288098A334375
:101328002B43234302F4415213439BB20380838B24
:1013380023F400631B041B0C8383F0BC01827047F9
:10134800838B23F47B6323F00F031B0402221B0C03
:101358002DE9F0418F6883830284848B9742A4B27D
:101368004FD02A4B8D889A68002D0CBF4FF0200C67
:101378004FF0400C12023FD4244E254AD6F884E0A0
:10138800D6F88430D6F80480CE88CEF3881EB6F519
:10139800007FC3F3027308F03F08B2FBF8F202FBC8
:1013A8000EF2B2FBF3F20CBF120AB2FBFCF202EB34
:1013B80082025300174AB3FBF7F305339BB2A2FB33
:1013C8000323DB085F08BA1E03F00103FD2A94BF5C
:1013D80047EA03230223B1F800E04F888A894EEADE
:1013E800070141F4006111430C43A4B233432C4379
:1013F80003848483BDE8F0819A6822F400029A602D
:10140800BAE73B468D88CE88E5E700BF0038024042
:1014180000127A00CDCCCCCC0023072202820380B4
:1014280043808380C380038143818381C381704764
:10143800002302228260036043608381704700BFFB
:10144800038829B923F040031B041B0C0380704751
:101458009BB243F040030380704700BF838B29B9D8
:1014680023F480631B041B0C838370479BB243F4F3
:1014780080638383704700BF038823F400631B04E1
:101488001B0C038003889BB219430180704700BF7F
:10149800B1F5804F038805D023F480431B041B0C4F
:1014A800038070479BB243F480430380704700BFBA
:1014B8004FF6FF639942038804D09BB243F48073CC
:1014C8000380704723F480731B041B0C0380704750
:1014D800838829B923F004031B041B0C83807047FD
:1014E8009BB243F004038380704700BF838829B907
:1014F80023F010031B041B0C838070479BB243F03E
:1015080010038380704700BF828B4B8822F47B6274
:1015180022F00F0270B412048E880C888D89120C88
:101528000221828333430184818B24F4007243F4C3
:10153800006392B22B43002A43EA01039BB20CBF1B
:101548004FF4807200221343838370BC704700BF3E
:10155800808980B2704700BF81817047038829B9AC
:1015680023F400531B041B0C038070479BB243F405
:1015780000530380704700BF03889BB243F4805335
:1015880003807047012914BF008B808A80B270479E
:10159800008A80B2704700BF83889BB21AB923EAD9
:1015A800010181807047194381807047012309092F
:1015B80003FA01F1838889B29BB21AB923EA0101BF
:1015C8008180704719438180704700BF03891942A1
:1015D80014BF012000207047C94389B201817047B8
:1015E80010B48488008901F00F03012280B202FA46
:1015F80003F3184006D00909A4B28A40144214BF64
:10160800012000205DF8044B704700BF01F00F0176
:10161800012303FA01F1C94389B20181704700BF70
:10162800704700BF01700120704700BF0B7810B4ED
:101638005BB1024602F8013B11F8013F141A002B76
:10164800F8D120465DF8044B70471C46F9E700BF07
:10165800092B2DE9F84316461C4602F1FF370546CB
:1016680014D8002FD8BF012004DD3A4612F0C3FF7A
:101678003D4430461D4BA3FB0423DB0803EB8303E7
:10168800A4EB430330332B70BDE8F883174BA3FB5F
:1016980004384FEAD808B8F1090FA2F1020914D8A2
:1016A800B9F1000F1DDD4A4612F0A5FFA9443046E6
:1016B8000E4BA3FB0823DB0803EB8303A8EB4303D0
:1016C80030333D4489F80030D4E7094BA3FB0423A9
:1016D8005B094A46FFF7BCFF05EB0009471C0230CF
:1016E800E6E7814601270220E2E700BFCDCCCCCC5B
:1016F8001F85EB512DE9F843002B1446054636DBD0
:10170800092B1E461EDD514FA7FB0637FF08092F80
:1017180052D8A2F10208B8F1000F40F3888042467F
:1017280012F069FF05EB0802611E2046474BA3FB38
:101738000743DB0803EB8303A7EB43033033137042
:101748000D4408E0013A002AD8BF012003DD154402
:1017580012F051FF20463D4BA3FB0623DB0803EBA9
:101768008303A6EB430330332B70BDE8F8835E4256
:10177800093315DA354FA7FB0637FF08092F3ED87E
:10178800A2F10308B8F1000F55DD424612F033FF0D
:1017980005EB0802611E20462D2302F8013BC5E730
:1017A800941E002C50DD2246254412F024FF2D23E0
:1017B80005F8013BA01CCEE7254BA3FB06384FEAF2
:1017C8005818B8F1090FA2F1030924D9214BA3FB3A
:1017D80006239B094A46FFF78DFF05EB000E421CC6
:1017E800811C0330194BA3FB0843DB0803EB83037D
:1017F800A8EB430330332A448EF8003096E7144BA5
:10180800A3FB06235B09A21E5B42FFF773FF2A189E
:10181800411C02308AE7B9F1000F10DD4A4612F088
:10182800EAFE05EB090EA21E611E2046DAE7024613
:10183800012102207AE7024602210320ACE786460E
:10184800022103200122CDE70024B0E7CDCCCCCC87
:101858001F85EB51D34D62102DE9F04383B0154637
:101868000A9C5FEA141806461F461CD1013A002A52
:10187800D8BF012003DD164412F0BDFE284604F04F
:101888000F04092C0AD927B95734347003B0BDE8BE
:10189800F0833734347003B0BDE8F08330343470EB
:1018A80003B0BDE8F083A2F10209220A17D1B9F109
:1018B800000F22DD4A4612F09EFEB1446A1E2846F9
:1018C80008F00F03092B05D997B9573389F8003069
:1018D8001644D4E7303389F800301644CFE7009235
:1018E8004A46FFF7B9FF06EB0009421C0230E7E75A
:1018F800373389F800301644C1E7814601220220B7
:10190800DEE700BF2DE9F04F8A4689B0064608B1E8
:10191800002101704FF0000B117861B1D34580F0C0
:10192800F88025290FD00132317011780BF1010BA5
:1019380001360029F2D1DA4540F2EB805846317081
:1019480009B0BDE8F08F5078252836D030283AD035
:10195800551CA0F13002092A4FF020013BD8002481
:1019680004EB840400EB440415F8010FA0F13002E5
:10197800303C092A04F0FF04F2D922465A44924521
:1019880038BFAAEB0B04A0F1580038BFE4B22028F6
:1019980000F2C880DFE800F09CC6C6C6C6C6C6C648
:1019A800C6C6C69674C6C6C6C674C6C6C6C6C6C6A3
:1019B800C6C6C663C63EC6C62200307002320BF1E8
:1019C800010B0136A8E79078951CA0F13002092A8E
:1019D8004FF03001C3D900221446CFE7D3F8008076
:1019E8005FEA181903F1040740F0C48004F1FF39D5
:1019F800B9F1000F40F3D6814A46304612F0FBFD9C
:101A0800B144214608F00F08B8F1090F7BD908F155
:101A180057087AE0D3F80080B8F1090F04F1FF39CC
:101A280003F1040700F2FB80B9F1000F40F3A18134
:101A38004A46304612F0DFFDB1442146D64BA3FB9F
:101A48000823DB0803EB8303A8EB430303F130020D
:101A580089F800203B466A1C0E44A3445CE71868DA
:101A680001781F1D002900F04481324602F8011B4D
:101A780010F8011F941B0029F8D13B462146EAE7DC
:101A88001A68002A03F10407C0F2B480092A9046B4
:101A98004EDC04F1FF39B9F1000F40F39B814A464F
:101AA800304612F0A8FD06EB09002146BA4BA3FB0D
:101AB8000823DB0803EB8303A8EB430230323B46E1
:101AC8000270C8E71A683270012104330C46C2E775
:101AD800D3F800805FEA181903F104076AD104F10A
:101AE800FF39B9F1000F40F361814A46304612F0E0
:101AF80082FDB144214608F00F08B8F1090F02D958
:101B080008F1370801E008F1300889F800803B4601
:101B1800A1E70BF1FF3B0023584606F8013C09B04A
:101B2800BDE8F08F4FF0FF3B584609B0BDE8F08F95
:101B3800994BA3FB02394FEAD909B9F1090F00F211
:101B4800B080A31E002B40F369811A4630460293E9
:101B580012F051FD029B601E334421468E4AA2FBBF
:101B680009E2D20802EB8202A9EB420230321A7073
:101B780030449BE75FEA1823029340F0DC80A31E01
:101B8800002B40F36F811A463046029312F033FD62
:101B9800029B621E3344214609F00F09B9F1090F6F
:101BA80094BF09F1300909F1570983F8009006EB51
:101BB800020927E75FEA1823029340F09D80A31EDD
:101BC800002B40F34A811A463046029312F013FD67
:101BD800029B621E3344214609F00F09B9F1090F2F
:101BE80094BF09F1300909F1370983F8009006EB31
:101BF800020980E7C2F10008093230DBA4F10209CA
:101C0800B9F1000F40F370814A46304612F0F3FCF8
:101C180006EB090021462D2300F8013B46E75E4B01
:101C2800A3FB0823DB08A21E092B0393029200F2F0
:101C3800D580002A2EDD304612F0DDFC029B039889
:101C480033441A462146544BA3FB00E3DB0803EB5D
:101C58008303A0EB43033033B1441370EEE6DFF89F
:101C68003891A9FB08394FEAD909B9F1090F00F2EF
:101C78008480E31E002B40F306811A463046029307
:101C880012F0B9FC029B601E334421462D2203F852
:101C9800012B63E702210C4632464FF00109184632
:101CA800D1E73E4BA3FB08235B091A46092A029396
:101CB800A4F103037ED93A4AA2FB08201A468309F5
:101CC8003046FFF717FD431CC41C0393029B06EB29
:101CD800000E21460230304AA2FB03C2D20802EBB2
:101CE8008202A3EB4202039B303233448EF8002079
:101CF80034E73B460C46AEE65FEA1832A4F103032C
:101D080040F09E80002B40F3B2801A463046039381
:101D180012F071FC039B621E06EB030E2146A31E04
:101D2800029800F00F00092894BF303037308EF841
:101D38000000334450E75FEA1832A4F1030372D17C
:101D4800002B40F39A801A463046039312F053FC56
:101D5800039B621E06EB030E2146A31E029800F0A9
:101D68000F00092894BF303057308EF800003344F4
:101D780012E701210C46B14660E6084BA3FB082395
:101D88005B09A21E5B423046FFF7B4FC841C331883
:101D980021460130E2E600BFCDCCCCCC1F85EB510B
:101DA800D34D621001210C46B1462BE601210C46A9
:101DB800B146A0E6002B6BDD1A463046039312F0BD
:101DC8001AFC039B06EB030EA31E0393601E214619
:101DD800029B80E701210C46304667E6564BA3FB81
:101DE80008235B09E21E092B0593049258D8002AA0
:101DF8007EDD304612F0FFFB049B21463344059AF2
:101E08004E48A0FB02E0C00800EB8000A2EB4000B7
:101E1800029A303018703244039814E702210C46B5
:101E2800334601209AE6009230461A460023FFF70F
:101E380013FDC41C214606EB000E431C821C8DE7D3
:101E4800009230461A460123FFF706FDC41C2146BE
:101E580006EB000E431C821C62E702210C46334647
:101E68000122B9E602210C463346012294E60321F9
:101E78000C46B6460222012352E703210C46B64619
:101E8800022201236AE703210C4633460220FDE6BD
:101E98000123032103930C46B646022013461AE792
:101EA800274BA3FB08239B091A46092A0693A4F18A
:101EB80004032ED8002B23DD1A463046079312F070
:101EC8009AFB079B069A06EB030E049B21461B48C8
:101ED800A0FB02C0C00800EB8000A2EB400030303D
:101EE80033448EF800008AE702210C46304692E619
:101EF800032101220C4633464FF0020902927EE785
:101F08000223042102930C46B6464FF0030901232D
:101F1800DDE70C4AA2FB08201A46430B3046FFF7C0
:101F280097FB821C041D0292214606EB000E431CFF
:101F380000F10309069ACAE71F85EB51CDCCCCCC3A
:101F4800D34D62105917B7D10CB400B583B004ABA8
:101F580053F8042B0193FFF7D5FC03B05DF804EBAD
:101F680002B0704713460A466421FFF7CBBC00BF96
:101F780010B59AB0134604460A4601A86421FFF733
:101F8800C1FC632817DC9DF8040058B10F4B1B688F
:101F98009A68944210D0DA68002001AB944203D0CA
:101FA8004FF0FF301AB010BD13F8011F013000299F
:101FB800F4D11AB010BDFEE701AB002013F8012FD1
:101FC8000130002AFAD11AB010BD00BF2400002049
:101FD80030B5164D9BB02C680B460246642101A80B
:101FE800A468FFF78FFC632816DC9DF8040050B145
:101FF8002B689A68944210D0DA68002001AB9442AA
:1020080003D04FF0FF301BB030BD13F8011F013073
:102018000029F4D11BB030BDFEE701AB002013F856
:10202800012F0130002AFAD11BB030BD2400002056
:102038000EB410B59BB01DAB044653F8042B0093A7
:1020480001A86421FFF75EFC63281DDC9DF80400ED
:1020580058B1144B1B689A68944216D0DA6800206D
:1020680001AB944206D04FF0FF301BB0BDE81040E2
:1020780003B0704713F8011F01300029F1D11BB0DC
:10208800BDE8104003B07047FEE701AB002013F82D
:10209800012F0130002AFAD11BB0BDE8104003B06F
:1020A800704700BF240000200FB430B51B4D9BB013
:1020B8001EAB2C6853F8042B009301A86421A46874
:1020C800FFF720FC63281CDC9DF8040050B12B6846
:1020D8009A68944216D0DA68002001AB944206D080
:1020E8004FF0FF301BB0BDE8304004B0704713F824
:1020F800011F01300029F1D11BB0BDE8304004B008
:102108007047FEE701AB002013F8012F0130002AC9
:10211800FAD11BB0BDE8304004B07047240000205D
:102128000EB400B582B003AB642153F8042B0193BD
:10213800FFF7E8FB02B05DF804EB03B0704700BF9F
:1021480003782BB1002310F8012F0133002AFAD1AC
:1021580018467047054B1B689A688A4204D0DB68AA
:10216800994218BF4FF0FF30704700BF240000208D
:102178000378F3B1104B1B689A688A4213D010B4E5
:10218800DC680023A14205D04FF0FF3318465DF804
:10219800044B704710F8012F0133002AF2D118467A
:1021A8005DF8044B7047002310F8012F0133002A13
:1021B800FAD11846704700BF24000020044A054998
:1021C8001368002B08BF0B46184410601846704768
:1021D80024210020200D01204FF0FF30704700BF60
:1021E8004FF0FF30704700BF4FF400534B600020A2
:1021F800704700BF012070470020704700207047DB
:1022080010467047FEE700BF074A0849936823F461
:1022180000039360C2F88410136843F0806313606E
:1022280013681B01FCD5704700380240C0430020EA
:10223800F0B5064685B008200D460121FEF738FFA7
:10224800102440F201236946844801930094FEF764
:1022580015FB01210520FEF72BFF40F202274FF462
:10226800A05369467E488DE88800FEF707FB0622E2
:1022780004217C48FEF792FB06220A217848FEF7E3
:102288008DFB694677480094FEF7F8FA06220C2180
:102298007348FEF783FB8023694671488DE8880000
:1022A800FEF7ECFA062207216D48FEF777FB214678
:1022B80000226A48FEF766FB44F6FF73013BFDD136
:1022C800012210216548FEF75DFB0DF0DDFE0121BE
:1022D8004FF40010FEF7ECFE0122022194200EF0CC
:1022E80035F9022194200DF037FFAF22044604216E
:1022F80094200EF02BF9042194200DF02DFF14F1F9
:10230800FF3418BF0124AF2818BF013481220521EA
:1023180094200EF01BF9052194200DF01DFF0422D6
:10232800812818BF0134062194200EF00FF90621E8
:1023380094200DF011FF042818BF0134642E00F218
:102348008A80494BC6EB062683FB0623F617C6EBA5
:102358006313DEB21936F6B23246202194200EF00D
:10236800F5F8202194200DF0F7FE32462121942023
:102378000EF0ECF8212194200DF0EEFE9E220221B1
:1023880094200EF0E3F8022194200DF0E5FE0022DF
:102398009E2818BF01340A2194200EF0D7F80A218C
:1023A80094200DF0D9FE04220028C8BF01340E2164
:1023B80094200EF0CBF80E2194200DF0CDFE0022D3
:1023C800042818BF0134272194200EF0BFF82721D4
:1023D80094200DF0C1FE0F220028C8BF01341F2130
:1023E80094200EF0B3F81F2194200DF0B5FE0A22B8
:1023F8000F2818BF01341A2194200EF0A7F81A21CB
:1024080094200DF0A9FE0A22904218BF01341B2126
:1024180094200EF09BF81B2194200DF09DFE0121C5
:102428000A2818BF01344FF40040FEF765FE0F4834
:10243800FEF730FF00264FF400724FF00073694634
:102448000A480295ADF80C608DE80C00FEF778FF9D
:10245800204605B0F0BD7D267EE700BF000C024097
:1024680000080240000002401F85EB51003C00407C
:1024780010B50B4B0B4C4FF40041402259602046DD
:1024880083F82F2302210122FFF786F8A38B5B052F
:1024980000D510BD20460121BDE81040FEF7DEBF83
:1024A80000E100E0003C004038B500283AD0AF22F7
:1024B800042194200EF04AF8042194200DF04CFEDB
:1024C800AF220446042194200EF040F80421942001
:1024D8000DF042FEAF3C18BF0124AF2818BF0134ED
:1024E8009E22022194200EF031F8022194200DF052
:1024F80033FE9E2818BF013414B10124204638BD8C
:102508001B4D012228460221FFF746F801211948F0
:10251800FEF740F8AB8B5B05F0D428460121FEF7A7
:102528009DFFEBE7FF22042194200EF00FF8042111
:1025380094200DF011FE01220446022194200EF091
:1025480005F8022194200DF007FEFF3C18BF012476
:10255800012818BF0134002CCFD12246022104489B
:10256800FFF71AF821460348FEF714F8204638BD4D
:10257800003C0040B860024038B5054618480021C4
:102588000446FEF707F82046FEF748F80028FAD177
:10259800FF22042194200DF0D9FF042194200DF08E
:1025A800DBFD022D4FF09F0210D0022194200DF088
:1025B800CDFF022194200DF0CFFD40F6FF72013AC5
:1025C800FDD110210748FEF7DDF938BD29469420D2
:1025D8000DF0BCFF294694200DF0BEFD38BD00BFAC
:1025E800B8600240000C0240054810B500210446BE
:1025F800FDF7D0FF2046FEF711F80028FAD110BDEC
:10260800B8600240642870B54DD8284BC0EB002054
:1026180083FB0023C017C0EB6310C5B21935E62849
:10262800EDB21FDD2A46202194200DF08FFF2021D6
:1026380094200DF091FD2A460446212194200DF0A6
:1026480085FF212194200DF087FD24EAE47420EA17
:10265800E07024B203B2601B18BF0120AB4218BF60
:10266800013070BD2E462A46202194200DF06EFFC1
:10267800202194200DF070FD2A4604462121942043
:102688000DF064FF212194200DF066FD24EAE47426
:1026980020EAE07024B203B2A01B18BF0120B342A5
:1026A80018BF013070BD7D263546DCE71F85EB512C
:1026B800024B4FF400425A60704700BF00E100E04F
:1026C800024B4FF40042C3F88420704700E100E059
:1026D800F8B51A4C05460E4620460021FDF75AFF6C
:1026E8002046FDF781FE164B16499E6040204FF4A8
:1026F80080621D615960D86019469A61204600229F
:102708004FF400674FF400564FF400351A605A61D1
:102718005A62DA621A635A639A63DF611E629D62C3
:10272800FDF7FAFE204610210122FDF7B7FF2046EB
:102738000121BDE8F840FDF72DBF00BFB860024099
:102748009C8000200C3C00400DF092BB012808B58D
:1027580010D009D3022805D105F0AEFC003018BF0F
:10276800012008BD012008BD05F0F2FC003018BFAB
:10277800012008BD05F0B8FC003018BF012008BDD5
:10278800012808B509D00ED3022804D105F098FC19
:1027980038B1032008BD012008BD05F0A9FC0028B8
:1027A800F7D1002008BD05F0E7FC0028F9D0032088
:1027B80008BD00BF012810B50C46114614D00BD334
:1027C800022807D11A46204605F07EFC003018BFC3
:1027D800012010BD042010BD1A46204605F0E0FC7B
:1027E800003018BF012010BD1A46204605F084FCB1
:1027F800003018BF012010BD012810B50C46114645
:1028080014D00BD3022807D11A46204605F060FCE5
:10281800003018BF012010BD042010BD1A46204604
:1028280005F0F2FC003018BF012010BD1A46204602
:1028380005F066FC003018BF012010BD0048704745
:10284800C0B34934012808B50B4614D00BD302286D
:1028580007D11146184605F03FFC003018BF01208B
:1028680008BD042008BD1146184605F001FD0030DA
:1028780018BF012008BD1146184605F045FC003078
:1028880018BF012008BD00BF10B402F109040028D8
:102898006ED00B681978202971D0052908BFE52169
:1028A80051725878202802F10A013BD0052808BF48
:1028B800E52090729878202802F10B0132D0052883
:1028C80008BFE520D072D878202802F10C0129D061
:1028D800052808BFE52010731879202802F10D019A
:1028E80020D0052808BFE52050735879202802F128
:1028F8000E0117D0052808BFE52090739879202885
:1029080002F10F010ED0052808BFE520D073D87951
:10291800202802F1100105D0052808BFE520107411
:1029280002F11101187A202827D02E200870187A71
:10293800202801F101040DD04870587A202801F1AF
:10294800020407D08870987A202801F1030401D086
:10295800C8700C1DD97A1172D9691160587E197E18
:1029680041EA00219180D97D9B7D43EA0123D380F0
:10297800002323705DF8044B70470C46EAE72146B4
:10298800D0E700BFF8B5056B00F1340704462A46C6
:10299800407839460123FFF72FFFC0B9626A2071DA
:1029A800954212D3E3691A4495420ED2E678012E75
:1029B80001D80AE0E36960781D44013E2A460123F4
:1029C8003946FFF719FF012EF4D10020F8BD012088
:1029D800F8BD00BF2DE9F84304682378303B092B84
:1029E80002D865783A2D13D000230B60B24E3568B3
:1029F8000DB30D602B7814469BB16878FFF7C0FEC5
:102A0800C7070ED404B310F004001AD1BDE8F88348
:102A18000234002504600D60002BE7D00B20BDE8D0
:102A2800F883002028706870FFF790FEC10705D56D
:102A38000320BDE8F8830C20BDE8F8833CB14207C9
:102A480005D50A20BDE8F8832046BDE8F88305F1DE
:102A580034073946012300226878FFF7ABFE10B12E
:102A68000120BDE8F88395F8332295F83282934B1C
:102A780048EA02280FFA88F8984502D00D20BDE8E8
:102A8800F883D5F86A30DFF83C9223F07F434B4552
:102A980000F0BD80D5F8863023F07F434B4500F029
:102AA800B68095F8F631002BE8D0D5F8FA41687869
:102AB800224601233946FFF77DFE0028D0D195F83C
:102AC800332295F8323243EA02231BB24345D5D16B
:102AD800D5F86A3023F07F434B4505D0D5F88630CA
:102AE80023F07F434B45C9D195F8402095F83F30F6
:102AF80043EA0223B3F5007FC0D195F84B2095F83F
:102B08004A3095F84400E87053EA022318BF1A4681
:102B180000F1FF3308BFAA6DEA61012BAED895F822
:102B2800418085F80280B8F1000FA7D008F1FF3383
:102B380013EA080FA2D195F8463095F8451041EAF6
:102B480003210B07298199D195F848E095F847307A
:102B580095F843C053EA0E2395F842E008BF6B6D21
:102B68005EEA0C2E8AD002FB00F00EEB111C8444A6
:102B7800634583D3A3EB0C03B3FBF8F3002B3FF4BB
:102B88007DAF40F6F578434574D94FF6F57843455F
:102B980054D90233A6440CEB0400AB61C5F824E019
:102BA800E8622C6200297FF469AF9B0003F2FF13EF
:102BB800286EA862B2EB532FFFF460AF95F865302A
:102BC80095F86420E96042EA032222444FF0FF337B
:102BD80069712B6139466A6101236878FFF7EAFD5C
:102BE80048B995F8331295F832324AF6552243EA35
:102BF800012393420DD00323B2882B700020531C6D
:102C08009BB22871B380EB802863BDE8F883044643
:102C18006AE72B4B6A6B9A42EDD103F1FF5303F538
:102C28000053D5F8182220339A42E4D1D5F81C3243
:102C3800D5F820222B61EA600323DDE702330EEB8F
:102C48000407A444AB616F62C5F82CC02C6200294C
:102C58003FF414AF5B0003F2FF133844B2EB532F79
:102C6800A862FFF40BAF00234FF0FF32EB602A613C
:102C78000223C1E702330EEB0407A444AB616F6281
:102C8800C5F82CC02C6200293FF4F8AE03F001010E
:102C980001F2FF1103EB430301EB53033844B2EB9A
:102CA800532FA862FFF4EAAE00234FF0FF32EB6027
:102CB8002A610123A0E700BF2821002055AAFFFFB1
:102CC8005252614146415400F8B5037904465BB954
:102CD8002378032B2CD0002260781146FFF7B2FD31
:102CE800003018BF0120F8BD056B407804F13407A7
:102CF8002A4639460123FFF77FFDB8B9626A207179
:102D08009542E5D3E3691A449542E1D2E678012E6B
:102D180001D8DDE7E36960781D44013E2A460123B6
:102D28003946FFF769FD012EF4D1D1E70120F8BD3E
:102D38006379002BCFD0002604F1340531462846AC
:102D48004FF40072266311F056FC2269E36884F898
:102D58001C22C2F3072E2946150C120E84F81E52A7
:102D680084F81F22C3F307251A0C0E4884F8203272
:102D780084F821521B0E84F822220B4F84F8233248
:102D8800AA22552584F83322C4F8180284F81DE2D3
:102D980084F832526763012362696078FFF72CFD7B
:102DA800667198E772724161525261412DE9F84F9C
:102DB8000378022B04460D46174678D0032B44D0DF
:102DC800012B04D0022001232371BDE8F88F466A45
:102DD800D0F8308001EB510906EB592AC24512D0D0
:102DE800027900F13406002A40F087803146012339
:102DF80052466078FFF7DEFC002840F00081666AE2
:102E0800C4F830A0D04615F00105C9F3080300F056
:102E1800E280234409F1010993F8341006EB59269E
:102E280001F00F0141EA071246454FF0010183F80E
:102E38003420217140F0DA80C9F30803C7F307177B
:102E4800234483F834700020BDE7436AD0F83090FB
:102E580003EBD118C84510D0037900F13406002BD4
:102E680040F094803146012342466078FFF7A2FC87
:102E7800002840F0C480C4F83080AD0005F4FE7529
:102E880005F1340222442544D3781B0603F070432D
:102E98001F433B0E85F83470C7F30726D370390CEF
:102EA80001235670917023710020BDE8F88F436AA2
:102EB800D0F8309003EB1128C8450FD0037900F102
:102EC8003406002B3ED13146012342466078FFF795
:102ED80071FC002840F09380C4F830806D0005F440
:102EE800FF752544C7F3072385F83530012385F896
:102EF800347023710020BDE8F88F3146424640788F
:102F0800FFF77AFC00287AD1626A20719045FFF4B5
:102F18006DAFE3691A449045BFF468AF94F803B005
:102F2800BBF1010F01D861E7E369607898440BF1C0
:102F3800FF3B424601233146FFF75EFCBBF1010F20
:102F4800F2D153E7314601234A464078FFF754FC53
:102F5800002854D1626A20719145B4D3E3691A44B8
:102F68009145B0D294F803A0BAF1010F01D8AAE7AD
:102F7800E369607899440AF1FF3A4A4601233146E9
:102F8800FFF73AFCBAF1010FF2D19CE73146012371
:102F98004A464078FFF730FC88BB626A2071914549
:102FA800FFF460AFE3691A449145BFF45BAF94F84E
:102FB80003A0BAF1010F01D854E7E3696078994496
:102FC8000AF1FF3A4A4601233146FFF715FCBAF1E8
:102FD800010FF2D146E709F10109234406EB59260E
:102FE8000122464583F8347022713FD004F1340B36
:102FF8005946012342466078FFF7FEFB20B10123C2
:1030080023710120BDE8F88F626A2071904516D3BC
:10301800E3691A44904512D294F803A0BAF1010F5B
:1030280001D80CE0E369607898440AF1FF3A424617
:1030380001235946FFF7E0FBBAF1010FF2D15946D7
:10304800012332466078FFF7B5FB0028D7D1266305
:10305800C9F30803002D7FF4F1AE2344C7F303221C
:1030680093F8347027F00F071743EAE6C9F308030B
:10307800F3E700BF2DE9F04F04460D46A3699D42D2
:1030880083B000F134064FF0010A80F0B680012DBC
:1030980072D92378022B00F0B280032B70D0012B59
:1030A80003D0012003B0BDE8F08F626A276B05EBFF
:1030B800550802EB582BBB450FD02279002A40F067
:1030C800088101235A4631466078FFF773FB0028D0
:1030D800E7D1626AC4F830B05F46C8F3080308F164
:1030E8000108234402EB5829B94593F834B031D08C
:1030F80023792BB301233A4631466078FFF77CFBEE
:103108000028CED1626A2071BA4219D8E3691A44FC
:10311800BA4215D9E278012A12D9CDF804B09346FB
:1031280000E0E36960781F440BF1FF3B3A46012356
:103138003146FFF761FBBBF1010FF2D1DDF804B0B6
:10314800607801234A463146FFF734FB0028A8D1AE
:10315800C4F83090C8F30803234493F834304BEA9A
:103168000327EB0740F1DB803F09002F45D0012FF3
:1031780002D0A3699D422CD3022003B0BDE8F08F92
:10318800676AD4F8308007EBD51747450CD0237908
:10319800002B77D101233A4631466078FFF70AFBC6
:1031A80000287FF47EAF2763AB0003F4FE7303F1BE
:1031B8003402224423449778D07893F83410537813
:1031C8003F0447EA00670F4347EA032727F07047A1
:1031D800CBE7294600222046FFF7E8FD00287FF4C8
:1031E80061AF23695A1C03D00133236184F805A019
:1031F800A3693D469D42FFF44AAF002052E7676A43
:10320800D4F8308007EB152747450BD02379A3B9AD
:1032180001233A4631466078FFF7CCFA00287FF45C
:1032280040AF27636B0003F4FF73234493F8352002
:1032380093F8347047EA022797E70123424631465C
:103248006078FFF7D9FA00287FF42BAF626A207103
:103258009045DDD3E3691A449045D9D294F8039098
:10326800B9F1010F01D8D3E7E3696078984409F10F
:10327800FF39424601233146FFF7BEFAB9F1010F83
:10328800F2D1C5E70123424631466078FFF7B4FA28
:1032980000287FF406AF626A20719045FFF47AAF88
:1032A800E3691A449045BFF475AF94F80390B9F1F7
:1032B800010F01D86EE7E3696078984409F1FF3996
:1032C800424601233146FFF797FAB9F1010FF2D1CF
:1032D80060E73A4631466078FFF78EFA00287FF4B7
:1032E800E0AE626A20719742FFF4EBAEE3691A44DC
:1032F8009742BFF4E6AE94F80390B9F1010F01D8F4
:10330800DFE6E36960781F4409F1FF393A46012393
:103318003146FFF771FAB9F1010FF2D1D1E6C7F3DF
:103328000B0722E72DE9F84F0378022B04460D46D8
:1033380075D0032B48D0012B03D04FF0FF30BDE8E8
:10334800F88F426AD0F8308001EB510602EB56291B
:10335800C14511D0027900F13407002A40F0CA8033
:10336800394601234A466078FFF724FA0028E4D159
:10337800626AC4F83090C846C6F3080306F1010A29
:10338800234402EB5A29C14593F834600FD02379BE
:1033980004F13407002B40F0D380394601234A4614
:1033A8006078FFF707FA0028C7D1C4F83090CAF34D
:1033B800080A5444EB0794F8340046EA002040F128
:1033C800E6800009BDE8F88F466AD0F8308006EB41
:1033D800D11646450DD0037900F13407002B64D18E
:1033E8003946012332466078FFF7E4F90028A4D172
:1033F8002663AD0005F4FE7505F1340323442C441F
:103408009878D97894F834205B78000440EA016011
:10341800104340EA032020F07040BDE8F88F466A68
:10342800D0F8308006EB112646450DD0037900F11F
:103438003407ABB93946012332466078FFF7BAF949
:1034480000287FF47AAF26636D0005F4FF752C44DD
:1034580094F8353094F8340040EA0320BDE8F88F3A
:103468003946012342464078FFF7C6F900287FF421
:1034780064AF626A20719045DCD3E3691A449045D1
:10348800D8D294F80390B9F1010F01D8D2E7E369D3
:103498006078984409F1FF39424601233946FFF71D
:1034A800ABF9B9F1010FF2D1C4E73946012342461D
:1034B8004078FFF7A1F900287FF43FAF626A2071D6
:1034C80090458DD3E3691A44904589D294F80390C6
:1034D800B9F1010F01D883E7E3696078984409F1ED
:1034E800FF39424601233946FFF786F9B9F1010F42
:1034F800F2D175E7394642464078FFF77DF9002852
:103508007FF41BAF626A20719045FFF429AFE3692D
:103518001A449045BFF424AF94F803A0BAF1010F00
:1035280001D81DE7E369607898440AF1FF3A4246FA
:1035380001233946FFF760F9BAF1010FF2D10FE71D
:103548003946012342466078FFF756F900287FF490
:10355800F4AE626A207142453FF61FAFE3691A4430
:1035680042457FF61AAF94F803B0BBF1010F01D8BA
:1035780013E7E369607898440BF1FF3B4246012367
:103588003946FFF739F9BBF1010FF2D105E7C0F36E
:103598000B00BDE8F88F00BF70B50C468168C48089
:1035A800012904D0054600688369994201D30220A5
:1035B80070BDB9B90278032A11D003890022A34249
:1035C800EA60F4D9836AC4F30F1213442B613430D0
:1035D80004F00F0400EB44146C61002070BD816A94
:1035E8000029EAD086783601B44218D3A41BA4B2C5
:1035F8000FE0FFF797FEA21B431C014692B21DD0B5
:103608000128D4D9286883698B42D0D9A64206D824
:1036180014460129CBD99942EBD3022070BD8A1EEA
:10362800023B9A42E9603BBF8378C16A002202FBF1
:103638000312C4F30F1313442B61C8E7012070BDB4
:103648002DE9F04F83B00546009101BBC668836938
:1036580046B39E4228BF012605F134073446B846D2
:1036680001349C4220D3012E40F22081022B14D930
:103678002B78022B4FF002041BD0032B7DD0012B9B
:103688003FD04FF0FF34204603B0BDE8F08F01294A
:1036980003D983699942C0F00B810124204603B005
:1036A800BDE8F08F0126D7E7012CF6D92B78022B3D
:1036B800E3D16F6AD5F8309007EB14274F450CD04B
:1036C8002B79002B40F0CB8001233A46414668789D
:1036D800FFF770F80028D4D12F63620002F4FF725C
:1036E8002A4492F8351092F8343043EA0123002B2B
:1036F80000F01181012BD0D0A64200F0D780AB6931
:10370800AEE76A6A2F6B04EB540902EB592BBB45F1
:103718000ED02A79002A59D101235A4641466878A1
:10372800FFF748F80028ACD16A6AC5F830B05F46A0
:10373800C9F3080309F101092B4402EB592ABA45D8
:1037480093F834B00DD02B79002B40F0BD800123C5
:10375800524641466878FFF72DF8002891D1C5F800
:1037680030A0C9F308032B44E20793F834304BEA3E
:10377800032340F1F5801B09B9E76F6AD5F830904B
:1037880007EBD4174F450CD02B79002B42D10123DE
:103798003A4641466878FFF70DF800287FF471AF84
:1037A8002F63A30003F4FE7303F134012944EA18DC
:1037B8008B78CF7892F834004A781B0443EA076381
:1037C800034343EA022323F0704390E73A46414615
:1037D8006878FFF711F800287FF453AF6A6A2871F8
:1037E800974299D3EB691A44974295D295F803A06A
:1037F800BAF1010F01D88FE7EB6968781F440AF125
:10380800FF3A3A4601234146FEF7F6FFBAF1010FA7
:10381800F2D181E701234A4641466878FEF7ECFF7A
:1038280000287FF42EAF6A6A28719145AFD3EB69FF
:103838001A449145ABD295F803A0BAF1010F01D80B
:10384800A5E7EB69687899440AF1FF3A4A460123EB
:103858004146FEF7D1FFBAF1010FF2D197E70123F4
:103868004A4641466878FEF7C7FF00287FF409AF4B
:103878006A6A28719145FFF427AFEB691A449145AC
:10388800BFF422AF95F803A0BAF1010F01D81BE7E6
:10389800EB69687899440AF1FF3A4A4601234146A0
:1038A800FEF7AAFFBAF1010FF2D10DE70024F5E601
:1038B800FFF738FD012804467FF6EFAEAB69834277
:1038C8003FF6ECAE009EC7E601233A4641466878CB
:1038D800FEF792FF00287FF4D4AE6A6A2871BA42D4
:1038E8003FF635AFEB691A44BA427FF630AFEA7853
:1038F800012A7FF62CAF0196164600E0EB6968783E
:103908001F44013E3A4601234146FEF775FF012E4A
:10391800F4D1019E1BE7AB69A3427FF6BEAE6FF000
:10392800704221462846FFF741FAE0B9009B6BB187
:10393800012B1A467FF6B1AEAB699A42BFF4ADAE21
:10394800114628462246FFF731FA60B92B69EC6028
:10395800591C3FF4A3AE013B01222B616A719DE61D
:10396800C3F30B03C3E601283FF48BAE95E600BF13
:103978002DE9F04F9246C26812EB0A0F89B08146D2
:1039880080F08E81BAF1000F00F08A81984600F12C
:10399800240301935B4203F0030318460393C3F522
:1039A800FE739B08013305939B000293C0F50073D7
:1039B800069300F124030793D9F8085009F1280366
:1039C8000F460493C346C5F30802002A40F0BA80A4
:1039D800D9F800008678013E06EA552616F0FF065B
:1039E80011D1002D40F04F81D9F81030002B00F094
:1039F8006881012B00F099815A1C00F03A81D9F8AE
:103A08000000C9F8143099F806104B0600F1178128
:103A1800D9F814308269A3F10208023A904580F07F
:103A28007E818378C26A009208FB03F818EB0205CE
:103A380000F075815FEA5A24354474D032199342F4
:103A480038BF9C1B4078E3B22A463946FEF7D4FEBD
:103A5800002840F00E81D9F81820551BAC425DD9DA
:103A6800009B0498921BD21AA2EB08025202B918C2
:103A7800884207EB452305D9111D0198394488422E
:103A8800C0F03A810398002800F03081197889F84D
:103A98002410012809F1250603F1010E00F03B81ED
:103AA800597889F82510032809F1260603F1020E32
:103AB80040F02D81997889F8261003F1030E09F159
:103AC800270640F2FD1503461344079ADDF814C093
:103AD80009EB02013B440022013253F8040B41F880
:103AE800040B9445F8D8029806998842A5EB00057E
:103AF80006EB00030EEB00020AD01EF8001031544A
:103B0800012D05D051785970022D01D092789A7004
:103B180099F8063023F0400389F806306302F91853
:103B2800D9F8085075E0D9F81830D9F808209D421E
:103B380004D0D9F80C309A42C0F0CD80C9F818509A
:103B4800C2F30802C2F5007302F12401283253457A
:103B58004A4409EB010007F1040428BF5346A04278
:103B680038BF974203F1FF3E7AD30B2B78D97A42BC
:103B780012F003025FD03C7809F80140012A00F1F5
:103B8800010407F10105A3F102060ED07C78447008
:103B9800032A00F1020407F10205A3F1030604D188
:103BA800BC788470FD1CC41C1E1FA3EB0208A8F17E
:103BB80004008008AEEB020E0130BEF1020F4FEA9E
:103BC800800C14D9114449443A444FF0000E009730
:103BD8000EF1010E52F8047B41F8047B8645F7D3B9
:103BE800E045009F64446544A6EB0C0621D02A7882
:103BF8002270F6B16A786270012E1AD0AA78A27083
:103C0800F91899F80620D9F8085042F0400289F8C6
:103C18000620DBF800201D441A44BAEB030AC9F851
:103C280008500F46CBF800207FF4CDAED9F80C2011
:103C380038E0F918E5E7044676463D46B5E74078AA
:103C4800D9F8182001990123FEF7D6FD88B999F80B
:103C58000610D9F8000001F0BF0189F80610D7E670
:103C68000138F91817F8012B00F8012FB942F9D1DA
:103C7800C7E799F8063063F07F0389F8063001201A
:103C880009B0BDE8F08FD9F81410FFF7D9FC034646
:103C9800002B7FF4AEAED9F80850D9F80C2001E01B
:103CA800D9F8085099F80630AA4243F020034FF09B
:103CB800000038BFC9F80C5089F8063009B0BDE8D3
:103CC800F08F3146FFF7BCFC0346C9F81000002B03
:103CD8007FF48FAEDFE74078019901232A46FEF78B
:103CE80069FD0028C5D1D9F8082027E79E46019E1E
:103CF8004FF400750346E7E609F1230203F5007067
:103D080013F8011B02F8011F8342F9D100E74FF4B1
:103D1800FF750346D8E640F2FF150346D4E661F086
:103D28007F0189F806100220AAE799F8063063F0A7
:103D38007F0389F806300220A2E700BF2DE9F04F83
:103D48008568C468A4EB050A924528BF924689B0E5
:103D5800BAF1000F6FD000F124029B465342019242
:103D680003F00302C2F5FE739B088046581C0292BA
:103D78000590894681001046C2F50072069200F14E
:103D88002402079208F1280204910392C5F308025D
:103D9800002A7BD1D8F800008678013E06EA55262D
:103DA80016F0FF0640F0D680002D40F0E480D8F8E9
:103DB8001050012D40F2E680691C00F0ED80D8F823
:103DC8000000C8F814508369023D023B9D4280F010
:103DD800D9808378C26A009205FB03F5AF1800F01A
:103DE800D1805FEA5A24374429D03219934238BF28
:103DF8009C1BE3B240783A464946FEF7DBFC98F84C
:103E08000630002840F0CA805A0605D5D8F8182090
:103E1800D71BBC4200F2CA80D8F808506302DBF80E
:103E280000201D441A44BAEB030AC8F80850994404
:103E3800CBF80020AAD1002009B0BDE8F08FD8F84F
:103E4800182097421CD098F806305B060FD501233E
:103E580040780199FEF7D0FC98F80630002840F029
:103E68009D8023F04003D8F8000088F80630407899
:103E7800019901233A46FEF79DFC002840F08C800A
:103E8800D8F80820C8F81870C2F30802C2F5007301
:103E980002F1240128325345424408EB010009F19C
:103EA800040428BF5346A04238BF914503F1FF37A9
:103EB80057D30B2B55D9424212F003024DD018F8B4
:103EC800014089F80040012A09F1010400F10105C7
:103ED800A3F1020611D0447889F80140032A09F1B8
:103EE800020400F10205A3F1030606D1847889F8DB
:103EF8000240C51C09F103041E1FA3EB020CACF120
:103F080004008008BF1A0130022F4FEA800E15D92D
:103F18001144CDF800904A444144002781460137B6
:103F280051F8040B42F8040BB945F8D8F445DDF80C
:103F3800009074447544A6EB0E0608D02A782270C7
:103F48002EB16A786270012E01D0AA78A270D8F8D2
:103F5800085064E7D8F8145035E705463E464C4605
:103F6800CBE709F1FF32C41810F8011B02F8011F52
:103F7800A042F9D1EBE7D8F81410012902D98369D6
:103F8800994274D398F80630022063F07F0388F8CA
:103F9800063009B0BDE8F08F98F8063063F07F036B
:103FA800012088F8063009B0BDE8F08F009B03991E
:103FB800921BD21A521B520209EB0203994209EBD7
:103FC80047270FD9131D01994B4499420AD20B4632
:103FD8007A1E08F5097013F8011B02F8011F8342C5
:103FE800F9D119E70299002945D098F824303B7097
:103FF800012907F1010008F1250546D098F8253078
:104008007B70032907F1020008F1260539D198F8D9
:104018002630BB70F81C08F1270540F2FD160B4648
:104028001A44079BDDF814E008EB03014A44002317
:10403800013351F8047B42F8047B9E45F8D8049F6D
:1040480006998F42A6EB070600EB070305EB07026C
:104058003FF4E2AEE95DC155012E3FF4DDAE517883
:104068005970022E3FF4D8AE92789A70D4E6FFF7D2
:1040780059F905469DE63846019D4FF400760B46F2
:10408800CEE74FF4FF760B46CAE740F2FF160B4621
:10409800C6E700BF2DE9F84F0B782F2B0C460646D4
:1040A80076D05C2B74D00025B56023781F2B75D98A
:1040B800B269A246544623782F2B214604F1010405
:1040C800F9D05C2BF7D0202300271370537093701E
:1040D800D370137153719371D371137253729372B6
:1040E8003C46BC4601F1FF3E4FF008081EF8013F70
:1040F800202B04F1010422D92F2B43D05C2B41D073
:104108002E2B25D0B8451ED9180635D4222B1AD007
:10411800A34D2A20834216D015F8010F0028F9D1A3
:10412800A3F1410019281ED84CF0020CD3551EF8F3
:10413800013F202B07F1010704F10104DCD80B191A
:104148009A4604239FBB4FF0060B5846BDE8F88FEC
:10415800B8F1080FF7D14FEA8C0C47465FFA8CFC90
:104168004FF00B08C2E7A3F161001928DED8203B05
:10417800DBB24CF0010CD9E7803B8A484CF0030CC9
:10418800C35CC3E70B199A460023002FDBD00EE06F
:1041980001340025B56023781F2B89D8294630467D
:1041A800FFF7FAF9834675615846BDE8F88F11782C
:1041B800E52904BF05211170B8F1080F04BF4FEAC3
:1041C8008C0C5FFA8CFC0CF0030101290CF00C0C30
:1041D80008BF43F01003BCF1040F08BF43F0080305
:1041E800D37200213046FFF7D7F98346002840F004
:1041F800D180376834693D6BA5420DD03B7907F112
:104208003408002B5BD14146012322467878FEF71B
:10421800D1FA002840D13C6373691978002932D05B
:10422800D87A02072BD4B26914788C4227D15C78EB
:1042380051788C4223D19C7891788C421FD1D478C4
:10424800D9788C421BD11C7911798C4217D15C79B1
:1042580051798C4213D19C7991798C420FD1DC79B8
:10426800D1798C420BD11C7A117A8C4207D15C7AB5
:10427800517A8C4203D19C7A917A8C4243D0F5884A
:104288000135ADB26DB9B369DB7A5C077FD44FF005
:10429800050B5846BDE8F88F4FF0010B5846BDE8AE
:1042A800F88F3469002CEED015F00F083BD0376832
:1042B800F58007F1340303EB481373619BE741462C
:1042C80001232A467878FEF797FA0028E4D17A6A1B
:1042D8003871954297D3FB691A44954293D297F85F
:1042E8000390B9F1010F01D88DE7FB6978781D4477
:1042F80009F1FF392A4601234146FEF77DFAB9F153
:10430800010FF2D17FE7D17A49073FF51EAFC0060A
:10431800BDD53168DD7E0878997E032841EA0521FC
:104328000AD0B160C6E6F16837680134346151B922
:104338003B89AB42A7D9BBE7587D1B7D43EA0023E5
:1043480041EA0341EDE7BB78013B13EA1513AFD10E
:10435800012902D9BB69994202D34FF0020BF4E656
:104368003846FEF7DFFF0128F7D9471C94D0376895
:10437800BB69984287D2023B821E9A42F0603BBFDB
:10438800BC78FB6A002402FB0434346190E74FF0E8
:10439800040BDAE6B3690428DB7A7FF4D6AE74E757
:1043A800997A0108504601082DE9F04F002183B0A1
:1043B8000646FFF7F1F80746002860D13568D6F8B9
:1043C80010904FF001082C6B4C4510D02B7905F15B
:1043D800340A002B40F0A580514601234A466878EC
:1043E800FEF7E8F9002840F08480C5F8309070693D
:1043F8000378E52B01D0002B3BD13468D6F8108028
:10440800256BA84510D0237904F13409002B40F01E
:10441800C2804946012342466078FEF7CBF900285E
:1044280067D17069C4F830802022002110F0E3F8C9
:104438007169B06901F1080300F10802984238BFB8
:104448009142C0F0CE8040EA01035B0740F0C9808A
:10445800D0E90023C1E90023037A0B72437A4B7237
:10446800837A8B723368012238461A7103B0BDE82B
:10447800F08FF4880134A4B2002C3FD104273846C9
:1044880003B0BDE8F08F012800F08380B0F1FF3F52
:104498002FD030680379002B40F0DD804FF4007294
:1044A8003430002110F0A7F83568AB69AA78023BD0
:1044B800A9F1020B9B4536BFEB6A00230BFB0233C5
:1044C8002B63002A00F0CE80002207E035682B6BB2
:1044D800A978013391422B6340F2C48085F80480A7
:1044E80028460192FEF74EFA019A0132D2B200280C
:1044F800ECD00127384603B0BDE8F08FD6F810900D
:10450800B9F1000FBAD014F00F0A30D1F16835684C
:1045180009F10109C6F8109089BB2B89A342ADD9CE
:1045280026E05146012322466878FEF765F90028FF
:10453800DFD16A6A28719442FFF44EAFEB691A44DE
:104548009442BFF449AF95F803B0BBF1010F01D80D
:1045580042E7EB6968781C440BF1FF3B22460123D4
:104568005146FEF749F9BBF1010FF2D134E735683E
:10457800F48005F1340303EB4A13736123E7AB7846
:10458800013B13EA1413F3D1012902D9AB6999420B
:1045980038D3022773E7494601232A466078FEF795
:1045A8002BF90028A5D1626A20719542FFF431AF3A
:1045B800E3691A449542BFF42CAF94F803A0BAF10A
:1045C800010F01D825E7E36960781D440AF1FF3A35
:1045D8002A4601234946FEF70FF9BAF1010FF2D135
:1045E80017E703780B7043784B7083788B70C37828
:1045F800CB7003790B7143794B7183798B71C379D4
:10460800CB7129E72846FEF78DFE01288146C0D9DF
:10461800B0F1FF3F3FF46DAF3568AB69984210D2F7
:10462800A0F1020B023B5B45C6F80C9085BF95F8DC
:104638000290EB6A4FF000090BFB0939C6F810909D
:1046480096E72846F168FEF7FBFF814600287FF4CD
:104658001AAF072713E7FEF795F900287FF449AF4B
:1046680030681BE79A1A2A63AB69DBE7836902396A
:10467800023B99423DBF8378C06A01FB03000020DA
:10468800704700BF012957D92DE9F84F836999422E
:104698000CD20378022B04460D467AD0032B4DD05A
:1046A800012B06D04FF0FF30BDE8F88F0120BDE8A0
:1046B800F88F426AD0F8308001EB510602EB562998
:1046C800C14511D0027900F13407002A40F0CD80AD
:1046D800394601234A466078FEF76CF80028E1D194
:1046E800626AC4F83090C846C6F3080306F1010AA6
:1046F800234402EB5A29C14593F834600FD023793B
:1047080004F13407002B40F0D680394601234A468D
:104718006078FEF74FF80028C4D1C4F83090CAF387
:10472800080A5444EB0794F8340046EA002040F1A4
:10473800E9800009BDE8F88F01207047466AD0F883
:10474800308006EBD11646450DD0037900F13407C9
:10475800002B40D13946012332466078FEF72AF80B
:1047680000289FD12663A90001F4FE7101F13403EA
:1047780023440C449878D97894F834205B78000462
:1047880040EA0160104340EA032020F07040BDE891
:10479800F88F466AD0F8308006EB112646450ED0D1
:1047A800037900F13407002B3AD139460123324608
:1047B8006078FDF7FFFF00287FF474AF2663690077
:1047C80001F4FF710C4494F8353094F8340040EA51
:1047D8000320BDE8F88F3946012342464078FEF7AA
:1047E8000BF800287FF45EAF626A20719045B1D360
:1047F800E3691A449045ADD294F80390B9F1010FDA
:1048080001D8A7E7E3696078984409F1FF3942467F
:1048180001233946FDF7F0FFB9F1010FF2D199E70D
:104828003946012342464078FDF7E6FF00287FF429
:1048380039AF626A20719045B7D3E3691A4490454D
:10484800B3D294F80390B9F1010F01D8ADE7E36949
:104858006078984409F1FF39424601233946FDF74B
:10486800CBFFB9F1010FF2D19FE7394642464078B4
:10487800FDF7C2FF00287FF415AF626A20719045EA
:10488800FFF426AFE3691A449045BFF421AF94F8CA
:1048980003A0BAF1010F01D81AE7E36960789844D8
:1048A8000AF1FF3A424601233946FDF7A5FFBAF15E
:1048B800010FF2D10CE73946012342466078FDF733
:1048C8009BFF00287FF4EEAE626A20719045FFF4EA
:1048D8001CAFE3691A449045BFF417AF94F803B0CE
:1048E800BBF1010F01D810E7E369607898440BF138
:1048F800FF3B424601233946FDF77EFFBBF1010F1E
:10490800F2D102E7C0F30B00BDE8F88F012907D9FF
:104918002DE9F84F8369994204D30220BDE8F88F46
:10492800022070470378022B164605460C4609D02C
:10493800032B00F09780012B28D0022001232B7134
:10494800BDE8F88F436AD0F8309003EB1128C845CA
:104958000ED0037900F13407002B40F0128139465C
:10496800012342466878FDF725FF68B9C5F830800D
:10497800630003F4FF732B44C6F3072283F8346003
:1049880083F835200020D9E70120D7E7476AD0F817
:10499800308001EB510907EB592AC24511D0027941
:1049A80000F13407002A40F0A1803946012352461D
:1049B8006878FDF7FFFE0028E6D16F6AC5F830A0D9
:1049C800D04614F00104C9F3080379D02B4409F147
:1049D800010993F8341007EB592701F00F0141EA58
:1049E800061247454FF0010183F83420297100F081
:1049F800EF8005F1340B5946012342466878FDF7EC
:104A0800FBFE0028C0D16A6A2871424516D8EB69B6
:104A18001A44424512D995F803A0BAF1010F01D8FA
:104A28000CE0EB69687898440AF1FF3A42460123A2
:104A38005946FDF7E1FEBAF1010FF2D159460123BB
:104A48003A466878FDF7B6FE00289DD12F63C9F372
:104A58000803002C41D0C6F307122B4483F83420F6
:104A680000206BE7436AD0F8309003EBD118C845B3
:104A78000FD0037900F13407002B5DD139460123AB
:104A880042466878FDF796FE00287FF47DAFC5F8AA
:104A98003080A10001F4FE7101F134032B44294454
:104AA800DA78120602F070423243C2F30727160C76
:104AB800140E81F8342000205F709E70DC703DE792
:104AC80009F101092B4407EB59270122B84583F85E
:104AD80034602A718DD1C9F308032B44C6F3032629
:104AE80093F8342022F00F023243B7E739464246A2
:104AF8004078FDF781FE00287FF446AF6A6A287186
:104B08009045FFF452AFEB691A449045BFF44DAF9E
:104B180095F803B0BBF1010F01D846E7EB69687857
:104B280098440BF1FF3B424601233946FDF764FEEA
:104B3800BBF1010FF2D138E7394601234A464078E4
:104B4800FDF75AFE00287FF41FAF6A6A2871914565
:104B580094D3EB691A44914590D295F803A0BAF121
:104B6800010F01D88AE7EB69687899440AF1FF3A9E
:104B78004A4601233946FDF73FFEBAF1010FF2D14B
:104B88007CE7394601234A464078FDF735FE002880
:104B98007FF4FAAE6A6A28719145FFF4E0AEEB69DA
:104BA8001A449145BFF4DBAE95F803A0BAF1010FA2
:104BB80001D8D4E6EB69687899440AF1FF3A4A4685
:104BC80001233946FDF718FEBAF1010FF2D1C6E606
:104BD800C9F308033FE700BF08B10B207047054B36
:104BE8001A6802B1107009B100220A701960002019
:104BF800704700BF2821002078B32DE9F04F00232B
:104C080003600B78303B092B8DB00D4616460446E1
:104C180019D9DFF86C83D8F80070002F00F05181A3
:104C280005973B7806F01E09CBB17878FDF7A8FD0B
:104C3800C30714D4B9F1000F00F0F380400740F126
:104C4800F0800A2006E04A783A2AE2D10B20002BAD
:104C580000F0E0810DB0BDE8F08F0920704700201A
:104C680038707870FDF772FDC10740F13381032079
:104C7800F0E7D7F86A30C04A23F07F43934200F048
:104C8800C781D7F8863023F07F43934200F0C08174
:104C980097F8F631002B00F06681D7F8FA9178780A
:104CA8004A4601235146FDF785FD002840F0218141
:104CB80097F8332297F8323243EA02231BB25B4556
:104CC80040F05181D7F86A30AB4A23F07F439342D2
:104CD80006D0D7F8863023F07F43934240F04381D3
:104CE80097F8402097F83F3043EA0223B3F5007F56
:104CF80040F0398197F84B0097F84A3097F844C04C
:104D080087F803C053EA002318BF18460CF1FF3395
:104D180008BFB86DF861012B00F2258197F841B002
:104D280087F802B0BBF1000F00F01D810BF1FF33D3
:104D380013EA0B0F40F0178197F8463097F845E0D3
:104D48004EEA032E1EF00F0FA7F808E040F00B8183
:104D580097F8482097F8473097F8431053EA02230A
:104D680097F8422008BF7B6D52EA012200F0FB80D1
:104D780000FB0CFC02EB1E116144994200F2F38027
:104D88005B1AB3FBFBF3002B00F0ED8040F6F57BDC
:104D98005B4540F273814FF6F57B5B4540F25381EA
:104DA80002334A444944BB617A62F962C7F82090E9
:104DB800BEF1000F40F0D7809B0003F2FF133A6E5C
:104DC800BA62B0EB532FC0F0CE8097F8653097F8F1
:104DD8006420C7F80CE042EA03224A444FF0FF334C
:104DE8003B6187F805E051467A6101237878FDF741
:104DF800E1FC50B997F8332297F8323243EA02239C
:104E08004AF65522934200F007810323B8F804209C
:104E18003B70531C9BB20022A8F80430FB803A6315
:104E28003A71294602AB05A80B93FFF733F906F050
:104E38001F070A9D60B9002D5FD016F01C0F31D0F6
:104E4800EB7A13F0110F34D1730711D5082001E75D
:104E580016F01C0F3FF4FEAE04287FF4FBAE05A845
:104E6800FFF7A2FA0A9D00287FF4F4AE47F008077E
:104E78003E0744D4059E336BE3612562A7713278FF
:104E8800E97EAB7E032A43EA01231CD02361EA6949
:104E9800F388A3800020E2602660A060A0610DB0C6
:104EA800BDE8F08FEB7AD80625D4B10703D5DA0729
:104EB80001D50720CEE63307DCD5059E47F020074D
:104EC800D9E70C20C6E6697D2A7D42EA012243EA39
:104ED8000243DBE7B9F1000F02D042073FF5B1AE5C
:104EE80007F1340A5146012300227878FDF762FC65
:104EF80068B30120AEE60420ACE60620AAE6FDF77A
:104F08009DFC0023010C020EC0F3072E059E297498
:104F18006A74A87385F80FE0EB72EB613378E97E69
:104F2800AA7E032B42EA01221FD000214FF001087C
:104F3800A976E9762975697586F80480002ABDD0B6
:104F4800424502D0B3699A421CD3022082E697F800
:104F5800332297F832B2094B4BEA022B0FFA8BFB3C
:104F68009B453FF486AE0D2074E6697D2B7D43EAB0
:104F7800012342EA0342D8E74641540055AAFFFFFD
:104F880028210020114630460192D6F83090FEF7CD
:104F980071F800287FF45EAE059E019AD6F830A01D
:104FA800013AD145F26089D0337906F1340B5BB907
:104FB800594601234A467078FDF7FCFB002898D132
:104FC800C6F83090059E79E74346594652467078B0
:104FD800FDF712FC00288CD1736A30719A45E7D32B
:104FE800F26913449A45E3D296F80380B8F1010FA9
:104FF80001D8DDE7F2697078924408F1FF3852462B
:1050080001235946FDF7F8FBB8F1010FF2D1CFE7BC
:10501800814665E60235FCE5294B7A6B9A427FF4B6
:10502800F4AE03F1FF5303F50053D7F818222033E9
:105038009A427FF4EAAED7F81C32D7F820223B61B7
:10504800FA600323E2E602334A444944BB617A62C8
:10505800F962C7F82090BEF1000F84D05B0003F21C
:10506800FF136244B0EB532FBA62FFF47CAF002306
:105078004FF0FF32FB603A610223C7E602334A442D
:105088004944BB617A62F962C7F82090BEF1000F0B
:105098003FF469AF03F0010101F2FF1103EB430391
:1050A80001EB53036244B0EB532FBA62FFF45BAFDA
:1050B80000234FF0FF32FB603A610123A6E600BFF0
:1050C8005252614170B5002484B01C6018B1056863
:1050D8000DB12C7814B9092004B070BDEE8884880D
:1050E800A642F8D104466878039202910193FDF72D
:1050F80047FB10F0010F019B0299039A01D003208E
:10510800EAE7A079050604D4C60705D4072004B049
:1051180070BD022004B070BD204604B0BDE87040E8
:10512800FEF70CBE70B5002484B01C6018B1056889
:105138000DB12C7814B9092004B070BDEE888488AC
:10514800A642F8D104466878039202910193FDF7CC
:1051580017FB10F0010F019B0299039A01D003205D
:10516800EAE7A079050604D4860705D4072004B029
:1051780070BD022004B070BD204604B0BDE8704088
:10518800FEF7F6BB40B12DE9F84303680BB11A7876
:1051980022B90920BDE8F88309207047D988828898
:1051A8009142F6D104465878FDF7EAFAC20702D5CB
:1051B8000320BDE8F883A37913F0200051D05B06E3
:1051C8000DD52368A269587804F124010123FDF75D
:1051D80013FB002847D1A37923F04003A371256866
:1051E800E7692E6BB7420CD02B7905F13408002BF8
:1051F8003CD1414601233A466878FDF7DBFA90BB7B
:105208002F63256AEB7A43F02003EB72E3682B7770
:10521800A3891B0A6B77E389AB77E37BEB77236979
:10522800AB761A0C110AC3F30723EB762A75697556
:10523800FDF704FB0023C0F30726010C020EA87536
:105248002976EE756A76AB74EB74A379226823F03D
:1052580020030121A37111711046BDE8F843FDF741
:1052680033BDBDE8F8830120BDE8F883414601233A
:1052780032466878FDF7C0FA0028F4D16A6A2871C6
:105288009642B6D3EB691A449642B2D295F8039087
:10529800B9F1010F01D8ACE7EB6968781E4409F150
:1052A800FF39324601234146FDF7A6FAB9F1010F4D
:1052B800F2D19EE740B12DE9F84303680BB11A78A3
:1052C80022B90920BDE8F88309207047D988828867
:1052D8009142F6D104465878FDF752FAC00702D534
:1052E8000320BDE8F883A3799A0651D559060DD550
:1052F8002368A269587804F124010123FDF77CFA98
:1053080000284BD1A37923F04003A3712568E769EE
:105318002E6BB7420DD02B7905F13408002B40D104
:10532800414601233A466878FDF744FA002835D10A
:105338002F63256AEB7A43F02003EB72E3682B773F
:10534800A3891B0A6B77E389AB77E37BEB77236948
:10535800AB761A0C110AC3F30723EB762A75697525
:10536800FDF76CFA0023010C020EC0F30726A8759E
:105378002976EE756A76AB74EB74A379226823F00C
:1053880020030121A37110461171FDF79DFC18B986
:1053980000202060BDE8F883BDE8F8830120BDE85F
:1053A800F8834146012332466878FDF725FA00283C
:1053B800F4D16A6A28719642B2D3EB691A449642CC
:1053C800AED295F80390B9F1010F01D8A8E7EB69BF
:1053D80068781E4409F1FF39324601234146FDF73A
:1053E8000BFAB9F1010FF2D19AE700BF38B1F8B55D
:1053F800036804460BB11A781AB90920F8BD0920C8
:1054080070470D468288D9889142F6D15878FDF7C1
:10541800B7F9C00701D50320F8BDA3791A0652D4FD
:10542800E268AA4203D213F0020F08BF1546002211
:10543800A368A260002D48D0206887787F02002BDF
:1054480045D0013B6A1EB3FBF7F1B2FBF7F28A4283
:105458003DD37A4213406669A360ED1A1EBBA36868
:10546800C3F30802002A00F08580A269964200F082
:105478008180A379590664D404F124052368294658
:10548800587832460123FDF795F9002851D1A368D1
:10549800E268A6619A4218D2A279E36042F020033A
:1054A800A3710020F8BDBD4269D92068A3799A0785
:1054B800A5EB070510D4012E02D98269B24233D870
:1054C80063F07F03A3710220F8BD0020F8BD2669B0
:1054D800002E45D06661C1E73146FEF7B1F80646B1
:1054E80000284BD0701C24D0012E28D9206883694D
:1054F8009E4224D2A36866613B44AF42A360D5D3E1
:105508002B44C5F30802A360002A35D021688A69B4
:10551800023E023A964212D28A78C96A06FB0216FD
:105528006EB106EB55269BE73146FDF7FBFE0646B6
:10553800D8E7A37963F07F03A3710120F8BDA379AD
:10554800BEE7236804F12405587829460123FDF7AE
:1055580053F9A3790028EDD123F04003A3718DE717
:105568003146FEF76DF801280646E8D0411CE0D028
:105578002061AFE7E2688DE7164671E73D46A3680C
:10558800BEE700BF002844D02DE9F04F0B78303B30
:10559800092B85B00D4604462DD900232360BA4F48
:1055A8003E68002E45D026603378002B37D07078BF
:1055B800FDF7E6F8C10732D401AB2946A3612046BE
:1055C8002568FEF767FD30BB636953B1DA7AD20606
:1055D80023D52978D87E9A7E032942EA002241D031
:1055E800A260EB88A38000212046FDF7D5FF0428A0
:1055F80013D058B108E04A783A2ACED10022026086
:105608000B20002B00F01D810023236005B0BDE8AE
:10561800F08F092070470428F6D10520F4E7002010
:1056280030707070FDF792F810F0010203D003207B
:10563800EAE70C20E8E706F13408414601237078D0
:10564800FDF7B8F808B10120DEE796F8332296F89E
:1056580032928E4B49EA02290FFA89F9994508D006
:105668000D20D1E7597D1B7D43EA012342EA03421D
:10567800B6E7D6F86A30DFF818A223F07F4353451F
:1056880000F0C180D6F8863023F07F43534500F000
:10569800BA8096F8F631002BE2D0D6F8FAB17078D5
:1056A8005A4601234146FDF785F80028CBD196F8E4
:1056B800332296F8323243EA02231BB24B45CFD14C
:1056C800D6F86A3023F07F43534505D0D6F88630A4
:1056D80023F07F435345C3D196F8402096F83F30D6
:1056E80043EA0223B3F5007FBAD196F84B0096F847
:1056F8004A3096F844C086F803C053EA002318BF1E
:1057080018460CF1FF3308BFB06DF061012BA7D824
:1057180096F8419086F80290B9F1000FA0D009F1EF
:10572800FF3313EA090F9BD196F8463096F845E007
:105738004EEA032E1EF00F0FA6F808E090D196F857
:10574800482096F8473096F8431053EA022396F813
:10575800422008BF736D52EA012281D000FB0CFC85
:1057680002EB1E11614499423FF67AAF5B1AB3FB14
:10577800F9F3002B3FF474AF40F6F5794B4562D945
:105788004FF6F5794B4540D902335A445944B36131
:105798007262F162C6F820B0BEF1000F7FF460AF0C
:1057A8009B0003F2FF13326EB262B0EB532FFFF48B
:1057B80057AF96F8653096F86420C6F80CE042EAD0
:1057C80003225A444FF0FF33336186F805E041461F
:1057D800726101237078FCF7EDFF48B996F833122F
:1057E80096F832324AF6552243EA0123934251D0C1
:1057F8000323BA883370531C9BB20022BB80F3800A
:1058080032633271D8E6834666E702335A44594414
:10581800B3617262F162C6F820B0BEF1000F3FF4C6
:105828001FAF5B0003F2FF136244B0EB532FB26269
:10583800FFF416AF00234FF0FF32F360326102230A
:10584800D7E70235ABE602335A445944B361726272
:10585800F162C6F820B0BEF1000F3FF401AF03F0CB
:10586800010101F2FF1103EB430301EB530362440F
:10587800B0EB532FB262FFF4F3AE00234FF0FF32C8
:10588800F36032610123B4E72821002055AAFFFF05
:10589800464154000A4B726B9A42A9D103F1FF5357
:1058A80003F50053D6F8182220339A42A0D1D6F82F
:1058B8001C32D6F820223361F260032399E700BF37
:1058C8005252614118B103680BB11A780AB909201C
:1058D80070472DE9F0478288DC88944284B018BF6D
:1058E800092002D004B0BDE8F087064658780F4674
:1058F800FCF746FFC10701D50320F3E7002F00F0AE
:10590800AC80346901ABB36144B3D6F80080D8F8F1
:105918003050A5420FD098F8043008F13409002B14
:1059280043D149460123224698F80100FCF742FF7B
:1059380030BBC8F83040726913787BB1E52B09D0C9
:105948002E2B07D0D37A03F03F030F2B02D0082B5E
:1059580040F08880F5880135ADB2BDB900243461C6
:1059680020463A4606F11401FCF78EFFF48801340C
:10597800A4B2002C63D10020306104B0BDE8F087E8
:1059880001200023336104B0BDE8F0873469002C9E
:10599800E4D015F00F0232D0D6F80080F58008F177
:1059A800340303EB42137361B1E7494601232A46E6
:1059B80098F80100FCF720FF0028E1D1D8F824204E
:1059C80088F804009542ACD3D8F81C301A449542A4
:1059D800A7D298F803A0BAF1010F02D8A1E7D8F826
:1059E8001C3098F801001D440AF1FF3A2A460123A9
:1059F8004946FCF701FFBAF1010FF0D191E7F168D0
:105A0800D6F800800134346159B9B8F80830AB428F
:105A1800A4D908F13403F5807361002C7FF477AFC3
:105A28009EE798F80230013B13EA1513F1D10129DA
:105A380003D9D8F81830994216D30220A1E7336960
:105A4800002B98D014F00F052AD03368F480343333
:105A580003EB45137361002044E739463046FDF7F0
:105A68009BFD3FE734697BE74046FDF75BFC012877
:105A7800E3D9421C84D0D6F80080D8F81830984270
:105A8800BFF46CAF023B821E9A42F0603BBF98F8AD
:105A98000240D8F82C30002402FB04343461B8E703
:105AA800F16801333361336821B91A89A2427FF65C
:105AB80062AFCBE79A78013A12EA1412C6D10129EB
:105AC80002D99A69914201D302200BE71846FDF7E3
