:020000040800F2
:10000000A4F40020AD750008A9750008A9750008C2
:10001000A9750008A9750008A9750008000000006E
:10002000000000000000000000000000A9750008AA
:10003000A975000800000000A9750008A97500084E
:10004000A9750008A9750008A9750008A975000818
:10005000A9750008A9750008A9750008A975000808
:10006000A9750008A9750008A9750008A9750008F8
:10007000A9750008A9750008A9750008A9750008E8
:10008000A9750008A9750008A9750008A9750008D8
:10009000A9750008A9750008A9750008A9750008C8
:1000A000A9750008A9750008A9750008A9750008B8
:1000B000A9750008A9750008A9750008A9750008A8
:1000C000A9750008A9750008A9750008A975000898
:1000D000A9750008A9750008A9750008A975000888
:1000E000A9750008A9750008A9750008A975000878
:1000F000A9750008A9750008A9750008D99E00080F
:10010000A9750008A9750008A9750008A975000857
:10011000A9750008A9750008A9750008A975000847
:10012000A9750008A9750008A9750008A975000837
:10013000A9750008A9750008A9750008A975000827
:10014000A9750008A9750008A975000835B7000849
:10015000A9750008A9750008A9750008A975000807
:10016000A9750008A9750008A9750008A9750008F7
:10017000A9750008A9750008A9750008A9750008E7
:10018000A9750008A975000810B4C47814BB00EB69
:10019000820003339B10D0F8D0001BD051F8042B01
:1001A000026001225C1E0431934204F0010411D06C
:1001B00034B151F8044C022204319342046009D056
:1001C00051F8044C046051F8044B0232043193425C
:1001D0000460F5D1002010BC704700BF033270B43A
:1001E0009510D0F8D0401ED00B4620686A1E43F808
:1001F000040B02F0010001220433954211D030B10A
:100200002068022243F8040C0433954209D0266882
:1002100043F8046C266843F8046B023204339542B9
:10022000F5D101EB8501084670BC70472DE9F00F50
:10023000002301224024012984B0C370827084808D
:1002400000F0BE80002900F098800178427800918B
:100250004FF40064C3600461002A00F0D3804FF4BF
:1002600060654FF488664FF48061039502960191B2
:100270009B464FEA421AAAF1200220230BF5106593
:100280000BF53066C2F34014021D53458561466587
:100290001ED04CB10BF512640BF532614023946112
:1002A00051650432534513D0814603F1200705EB15
:1002B000030806EB030CE8194033F719C2F818805D
:1002C000C2F854C0D061976508325345EDD1484615
:1002D000019C44610099029CC0F8CC40002944D0A4
:1002E0000BF5A06202EB4115AC1A0BF5A463203CA0
:1002F000C0F89020021DAB42C4F3401111D031B1BF
:10030000C2F890300BF5A8630432AB4209D003F178
:100310002004C2F890304033C2F894400832AB4217
:10032000F5D1009C0BF5805202EB0435A91A0BF5B0
:100330000053A1F58051C0F8D020021DAB42C1F39B
:10034000003112D031B1C2F8D03003F580530432FD
:10035000AB420AD003F58054C2F8D03003F5005305
:10036000C2F8D4400832AB42F4D10399C0F80C1162
:10037000002004B0BDE8F00F70470C254FF4A066D4
:100380000023C1720570C6804FF4606100954FF480
:1003900080664FF4886506224FF40064C4F20403BB
:1003A000C4F20401C4F20405C4F2040642700391CD
:1003B00002950196C4F204049B46C360046158E7A9
:1003C00008250226C1724FF4A0710570C180067223
:1003D0004FF4606100954FF480664FF48865042205
:1003E0004FF400644FF0A043C5F20001C5F20005D0
:1003F000C5F200064270039102950196C5F2000411
:100400009B46DAE74FF460634FF488614FF48064F1
:1004100003930291019493465BE700BF70B5027AA3
:100420000023012A044682B01E46C0686FD0C1680E
:1004300041F04005C560032001930BF049F9E368E2
:100440001A694FF454650192C0F2030510E00BF0F5
:100450003FF9E3681A6901920199032000290DDB35
:100460000BF036F9E3681869013D1946019025D073
:1004700001990320002905F1FF35E8DA019840F0E1
:10048000010201920199196118694FF454620190B7
:10049000C0F2030208E0186901900199C90709D563
:1004A0001869013A019005D0019911F0010F02F18C
:1004B000FF32F0D103200BF00BF9E168227A607A69
:1004C000032A14BF4FF480324FF4403242F4301309
:1004D00008B142F470138B6314200BF011F9E36838
:1004E000217AD868032908BF40F48030D860227A86
:1004F000032A74D0E178012906D1E068826822F0ED
:100500003E0343F02A018160002002B070BD816B80
:10051000627A63F310410AB141F480118163C568C6
:1005200025F4800323F0500242F010016FF3C30161
:100530006FF3C7116FF351416FF3D341C1600025D1
:10054000032000950BF0C4F8E36818694FF4546574
:100550000090C0F203050FE00BF0BAF8E3681969E8
:100560000091009A0320002A0CDB0BF0B1F8E3683D
:100570001969013D009124D0009A0320002A05F159
:10058000FF35E9DA009840F001010091009A1A6104
:1005900018694FF454620090C0F2030208E0186931
:1005A00000900099C80709D51869013A009005D054
:1005B000009911F0010F02F1FF32F0D103200BF08E
:1005C00087F8E07801289FD1052262F34406E368AA
:1005D00046F020069E60E17801298ED094E71D6BDD
:1005E000012161F39B656FF3D7552D2045F08055B0
:1005F00060F316451D63C8200BF082F8E36845F4EC
:1006000000051D63C8200BF07BF873E7C3689A6888
:1006100042F0010098600020704700BFC3689A68EC
:1006200022F0010098600020704700BFC26808B542
:10063000D36801296FF35D736FF39E7308D009B916
:1006400043F080433220D3600BF05AF8002008BDFD
:1006500043F00053F6E700BFC368586900F001009B
:10066000704700BFC3685A6998691040704700BF5F
:1006700030B5044683B00AF0FFFFD4F80C2163695B
:10068000002111601A68012060F301021A601A68E3
:1006900061F382021A60E37A012B084600F093802E
:1006A000E26800210091009840F020030093009838
:1006B000102161F38A100090009B136110694FF4C0
:1006C00054630090C0F2030308E0106900900099A1
:1006D000880609D51069013B009005D0009911F0FA
:1006E000200F03F1FF33F0D103200AF0F1FF0022C5
:1006F00001920199E06841F010030193019A0261AF
:1007000001694FF454630191C0F2030308E00169E9
:100710000191019AD10609D50169013B019105D0EA
:10072000019A12F0100F03F1FF33F0D103200AF009
:10073000CFFF207868B1002322464FF0FF351846DE
:10074000D2F890108D60C86021780133043299424C
:10075000F6D8204601210AF083FFD4F8CC000368C4
:100760006FF382036FF341036FF3C3036FF345131A
:10077000C3F3072101F01002D1B211B943F4805341
:100780000360C8200AF0BCFFE3684FF400614FF03B
:10079000FF320020C8F2000198615A615A605A6124
:1007A0009961E278996982420CBF1022024642F0B8
:1007B0000C5242F0080242F4001221EA02011143F5
:1007C000996103B030BD8023E025E26863F30F0137
:1007D00065F30F00C0F26001C0F2600053629162E5
:1007E000C2F800015DE700BF43691A6861F30102C6
:1007F0001A60704743695869704700BF38B50546AD
:100800000A20D5F8CC2013686FF382036FF34103FD
:100810006FF3C3036FF3451343F4807414600AF05D
:100820006FFFD5F8CC106FF3082414200C600AF089
:1008300067FF012038BD00BFF0B400EB81034D011C
:10084000D3F890204FF0FF3446199460C77896F89B
:10085000B1620023012F0CBF04241C46032E11D8C3
:10086000DFE806F002520246461906F52A7644F001
:100870008907B479002C53D1367A47F48A640EB1D3
:1008800047F48E644669D460B769C4684FF0010CC0
:100890000CFA01F13943B161A669401946F00075BF
:1008A000A56190F8AF4290F8AC7290F8AD6290F804
:1008B000AE5290F8B112B4F1020C67F39C53DCF124
:1008C000000466F3CE2300F52A7054EB0C0465F3A4
:1008D000CF33408964F3514361F3934360F30A03D8
:1008E000032908BF43F0005313600020F0BC704799
:1008F000471944F0990697F8AE7246F4C064002F89
:10090000C0D046F4E064BDE7471944F0010697F80B
:10091000AE7246F40874002FB4D046F46874B1E7A0
:1009200047F4A264AEE700BF2DE9F0014D01441980
:100930000022D4F8BC329BB1B4F8B27203F1FF3696
:1009400006EB0708B8FBF7FC1FFA8CFCBCF5807FB0
:100950005ED93B024FF48076C4F8BC32B44601E065
:100960000126B446471997F8AE82B8F1000F05D0BA
:10097000B7F8B23203FB0CF3C7F8BC3201F10D0C2F
:1009800000EB4C1700EB810497F81481D4F89040E9
:1009900063F3120266F3DC4268F35E722261C2788E
:1009A0004669012A04BFD7F8182162612268B76836
:1009B00007F0010787F0010767F35D7242F000421C
:1009C0006FF39E722260C278F2B9451905F52A7557
:1009D000AA79CAB9C3B16A7A032A24D8DFE802F037
:1009E000021C021CC268D46ADD1CC5F38F05A4B2C8
:1009F000A54218D9946944F020049461C47800EBAE
:100A00004C1CDCF8182194B10020BDE8F0017047BF
:100A10004FEA8C54A60DA5E73269DC1CC4F38F04A1
:100A200092B2944228D800EB4C12D2F818219BB213
:100A300000EB8100D91C8B10D0F8D000E4D052F824
:100A4000041B016001215C1E04328B4204F001048E
:100A5000DAD034B152F8044C022104328B420460E3
:100A6000D2D052F8044C046052F8044B02310432E4
:100A70008B420460F5D1C7E7C268946944F0806492
:100A80009461C478BBE700BF00EB8101D1F89020EE
:100A9000136843F04043C3F3074111F00C010BD03E
:100AA000082909D040690169C1F3074008B960F31A
:100AB000DF73136000207047C168C86AC0F3074045
:100AC0000028F6D160F3DF73F3E700BF00EB81018C
:100AD0004FF00042D1F89030012060F3DC421A61FF
:100AE0001968002041F0004260F39E721A6070475E
:100AF0002DE9F00F42F6683503F00304C0F6010556
:100B00004FEAA30B42F6683305EB8406C0F60103F7
:100B1000283388B003EB8415D6F82871AE680297A5
:100B2000BBF11F0FA8BF4FF01F0B0346BBF11B0FFC
:100B3000D8BF0BF1030C6F68E86853F8044BD4BFBF
:100B40002CEAEC7C4FF01F0C46FA0CF647FA0CF737
:100B500040FA0CF024F0004947F6991C4FF00008C9
:100B600002F1FF3AC5F6822CB9F1030F0696CDF8D3
:100B7000108005970790CDF804C00AF0010600F335
:100B8000A08008A800EB890959F8107C002C384691
:100B9000B8BF7F42013A41F8047B6DD0AEB153F843
:100BA000044B24F00046032E00F39A800DF1200937
:100BB00009EB860656F8107C002C40EA0700B8BF07
:100BC0007F42013A41F8047B56D0AA4621E008ADA5
:100BD00005EB860656F8105C002C40EA0500B8BF0D
:100BE0006D4241F8045B53F8044B24F00046013A8F
:100BF000032E21DC0DF1200909EB860656F8105C66
:100C0000002C40EA0500B8BF6D42013A41F8045B90
:100C100032D053F8044B24F00046032ED7DD0F2EBC
:100C20002EDC5AF82650BBF1000FBABFCBF10006FC
:100C3000B54045FA0BF5CFE70F2E37DD3F2E00F319
:100C40000D8142F66838C0F6010808EB8606029F5F
:100C5000D6F8F85085FB0767ABF10305002DC0F20D
:100C6000558147FA05F5002C40EA0500B8BF6D42F2
:100C7000013A41F8045BCCD108B0BDE8F00F7047F1
:100C80003F2E00F3898042F66837C0F6010707EB74
:100C90008605029FD5F8F85085FB0767ABF1030680
:100CA000002EC0F2D18047FA06F595E75AF8265093
:100CB000BBF1000FB6BFCBF1000645FA0BF5B5400E
:100CC0009EE7B9F10F0F00F32C81BBF1000F55F82F
:100CD0002970B6BFCBF1000047FA0BF7874055E704
:100CE0000F2E40F384813F2E40F3A48177046FF0F0
:100CF000784A574500F3CD8177054FF0040A062660
:100D00006FF060494F4501DCBF00B2466FF04046CE
:100D1000B74202DC7F000AF1010ADDF80480DFF847
:100D20007C934BF6A95C42F263164745C2F6A01CC1
:100D3000C1F28506D8BF664642F6683CC0F6010C93
:100D4000C8BFCC46B84686FB0898DCF80460B946B4
:100D5000464486FB0989DCF80860B8464E4486FBA9
:100D60000898DCF80C60464486FB078742F6683634
:100D7000C0F6010606EB8A0ADCF810C0DAF8F86162
:100D8000674487FB06C6F700029E87FB06C6DAF8B3
:100D90001872C7EB0B075AE175046FF078494D459F
:100DA00040F3358102274FF000096FF06048454558
:100DB00001DCAD00B9466FF04046B54202DC6D0083
:100DC00009F10109DDF804C04BF6A95742F2631698
:100DD0006545C2F6A017C1F28506D8BF3E4642F669
:100DE000683CAE4FC0F6010CC8BFBC462F4686FB20
:100DF0000787DCF80460039507EB06082E4688FB9E
:100E00000676DCF80870A846F71987FB0868DCF856
:100E10000C60464486FB057542F66837C0F601074C
:100E200007EB8909DCF81070D9F8F861ED1985FB3A
:100E30000676F600029F86FB0757D9F81852C5EBD5
:100E40000B06002EBFF62FAF75426FF000462E4105
:100E5000B74200F3018107FA05F5BDE675046FF0AE
:100E600078494D4540F3CE8002264FF000096FF0DF
:100E70006047BD4201DCAD00B1466FF0404C6545B6
:100E800002DC6D0009F10109DDF804804BF6A95779
:100E900042F263164545C2F6A017C1F28506D8BFD7
:100EA0003E4642F6683C7D4FC0F6010CC8BFBC46CA
:100EB0002F4686FB0787DCF80460039507EB0608DE
:100EC0002E4688FB0676DCF80870A846F71987FBE3
:100ED0000868DCF80C60464486FB057542F6683706
:100EE000C0F6010707EB8909DCF81070D9F8F86142
:100EF000ED1985FB0676F600029F86FB0757D9F8A9
:100F00001852C5EB0B05002DBFF6ABAE6D426FF06E
:100F100000462E41B742CCBF6FF0004507FA05F5F9
:100F20006EE6B9F13F0F77DD4FEA494C6FF0784735
:100F3000BC4500F39F804FF004084FEA495C06204F
:100F4000CDF80C806FF06047BC4502DC4FEA8C0C9A
:100F500003906FF04040844504DC039F781C4FEA07
:100F60004C0C0390DDF804904BF6A95742F2631045
:100F7000CC45C2F6A017C1F28500D8BF384642F66C
:100F80006838464FC0F60108C8BFB846674680FBC0
:100F90000797D8F80400E246381880FB0A7AD8F898
:100FA0000870E146574487FB0909D8F80C0048440B
:100FB00080FB0C7C42F66837DDF80C90D8F8108086
:100FC000C0F6010707EB8907C444D7F8F8018CFB8A
:100FD00000804FEAC00C02988CFB0080D7F8187292
:100FE000C7EB0B07002F3ADB40FA07F7CEE555F8C1
:100FF0002670BBF1000FB6BFCBF1000647FA0BF726
:10100000B740D9E575054FF0040906262FE77505A9
:1010100006274FF00409C8E642F66830C0F6010022
:1010200000EB89090298D9F8F87087FB00C0ABF192
:101030000307D7E742F66838C0F6010808EB8607D1
:10104000029ED7F8F87087FB06C6ABF10307002FA6
:1010500014DB46FA07F7AFE56FF00045BCE57F42C9
:101060006FF0004848FA07FC6045CCBF474600FADD
:1010700007F78BE50220CDF80C8063E77F426FF025
:10108000004848FA07FC6645CCBF474606FA07F712
:1010900092E502264FF0000A32E600BF7C2B0108E1
:1010A0002DE9F04F8FB0DDF860B00290DBF814400E
:1010B0000891022C0C920B9300F0F6810D2716205C
:1010C0000B9D06970390DBF840002B6ADBF8087055
:1010D000451C69005B080797049101D0023F079700
:1010E000039C002C00F0F2810B9F079D786BDBF8CE
:1010F0003C20B0F90260B0F90010199F013C3B7828
:10110000C5F1D00904F00104761A002A40F0BE812E
:101110000298DDF810809B180146324608FB0393C5
:10112000FFF7E6FCDDF830A0DAF8001000258E426B
:10113000824680F2A88003980127874200F0A380AE
:101140006CB30B9F199C7B6BDBF83C20B3F902104E
:101150000227E01933F9174010F8013C641A002AFD
:1011600040F097812946DDF808C0DDF810800CEBCF
:1011700086005B182246014608FB0393FFF7B8FC84
:10118000DDF830C0DCF800203619002818BF012532
:1011900096424AEA000A76DA0398874273D0CDF87D
:1011A0001490DDF82C80DDF83090CDF804B07C1C74
:1011B000D8F834301998DDF804B033F9141033F945
:1011C00017E0DFF810C3DBF83C2003190CEB040038
:1011D000CEEB010C13F8011C0AB110F8012CDDF85C
:1011E00008B0DDF814E0CDF800C00BEB8600DDF8A8
:1011F00010B08B180BFB03E301466246FFF778FC47
:10120000DDF800C0D9F800106644631C002818BF40
:101210003D468E424AEA000A33DAD8F83470DDF8E7
:1012200004B0199837F913E0DBF83C1037F9147063
:10123000C218C7EB0E0712F8012C29B1DFF894C2CF
:101240000CEB030111F8011CDDF808B0DDF810E02B
:10125000DDF814C00BEB860053180EFB03C33A46AF
:101260000146FFF745FCD9F80020F619002818BF01
:101270002546671C96424AEA000A02DA039CA74206
:1012800095D1DDF804B01A9C6561069D00200B2DF8
:101290002060E060A0606060206100F30181199926
:1012A000079A08982F4605EB45054B19C2F1D00463
:1012B000173309970A97B846071F039401930797B6
:1012C0000B9DDBF828106A6B019BDDF810E01B78A2
:1012D00002EB4804039AB4F93070B4F92E5002EBD3
:1012E000C10002994FEA86097C1BCDF8149089440D
:1012F0000EFB0303089922464846FFF7F9FBDBF88B
:101300002C30019FDDF80CC097F801E0089A0A9F85
:10131000A5190CEBC30340EA0A0CDDF810A00D95EB
:101320000AFB0E33DDF808A0DDF834E0CDF800C08C
:10133000A500002818BF474651190AEB8E00224627
:101340000A97FFF7D5FBDBF83010019B039FDDF810
:1013500000C093F802E04CEA000C07EBC1030999C6
:10136000CDF834C0DDF820C0002818BF4146E700A2
:101370004FEA440A09910CEB0701DDF808C00AEBBB
:1013800006020CEB8200DDF810C022460CFB0E3387
:10139000FFF7AEFB069B08F1010C002818BF43467F
:1013A000DDF8348006930AEB0402002C48EA000AB8
:1013B00016443FDDDDF81C80029AD8F80410404640
:1013C000DDF81480031D42F8081053F82410DDF8EE
:1013D0001C80C9F8041053F8342005EB0801281FBD
:1013E0008B42C9F80820C0F3800009F10C0221D01B
:1013F00068B153F8040FC9F80C0053F8240050608A
:1014000053F834408B42946009F1180212D05868A6
:10141000043310605C595460D85990605C680433A0
:10142000D4605859106102F10C04D85918328B421B
:10143000A060ECD10C9D2F68BE4207DA0199CA1C4E
:10144000BCF10D0FE04601927FF43AAFDDF830C0F9
:101450001A9DCCF80060DBF818300A9C0999099FA6
:10146000BAFA8AF0002B14BF02220122A142B8BFAF
:10147000214685E81400069CAF60EC60A142ACBF39
:1014800029612C6101380FB0BDE8F08F114F3A7817
:101490003EE6DFF8408008EB070212F8011C62E626
:1014A000BAFA8AF2501EEEE7DBF8183053B10B9906
:1014B0000A780326002A14BF0624082406960394FB
:1014C0000D4600E6069303930B9DFCE52546A246D8
:1014D0002646D8E6A02D01082DE9F04F9BB00290DA
:1014E00007910392002800F061850468002C00F049
:1014F0005D8545680595002D00F05885D0F8088079
:10150000B8F1000F00F0528512689B18D91D48BF32
:1015100003F10E01C91012A8079A01F085FB039E82
:101520003168002940F0FC812078002840F02481B7
:10153000249F259B249A259EF900DC008818A51974
:1015400007010891059B8B48099407EBC5012831D9
:101550005B184FEA461AC6EB0A07249EDC685A69F4
:1015600010F814504FEA461B790000EB4400C6EB1C
:101570000B0C01EB8C09022A08EB0904477800F0F8
:101580006883002E00F0F181259A059E1001083035
:1015900006EB000C335808EB0106002B00F05D84CD
:1015A00044EA0602930740F01C85201D331D9C422F
:1015B00038BF8642C0F0158558F80120022148F84E
:1015C00009200422B05C5118531C8B42A0540ED049
:1015D000012222B1F05CE05401338B4207D0F05C71
:1015E0005A1CE0540233B05C8B42A054F7D1DCF8B3
:1015F0000410002900F05684259B2498C3EB0A05AB
:101600006A00C0EB0B0102EB810343444244901D8E
:10161000991D41EA0005AD0740F0EB8403F10A0E85
:1016200002F10A05A94238BF7045C0F0E284D2F841
:1016300006000A210122C3F80600CB438A18755C14
:1016400098184B1C9342655400F001010DD021B154
:10165000F55CE5540133934207D0F05C591CE0542B
:101660000233755C93426554F7D1DCF80820002AF8
:1016700000F03784259B249DC3EB0A004100C5EB95
:101680000B0201EB8203434408EB010202F10B0061
:1016900003F10B0141EA0005AD0740F0A68403F118
:1016A0000F0E02F10F05A94238BF7045C0F09D84AE
:1016B000D2F80B000F210122C3F80B00CB438A188C
:1016C000755C98184B1C9342655400F001010DD0D5
:1016D00021B1F55CE5540133934207D0F05C591C0D
:1016E000E0540233755C93426554F7D1DCF80C206A
:1016F000002A00F01584259B249DC3EB0A004100BD
:10170000C5EB0B0201EB820008EB0103804403F1FF
:10171000100108F1100242EA0105A80740F05D84BB
:1017200008F1140503F11400824238BFA942C0F049
:1017300054841B690121C8F810301422D343501877
:10174000B55C1918531C8342A55401F001020DD059
:1017500022B1F55CE5540133834207D0F15C5A1C99
:10176000E1540233B55C8342A554F7D10026667577
:10177000A675B2E0B82D0108259A249D2499259ECE
:10178000246AD3000993EF00099D249B08977818D9
:101790000201AF1902EBC700059D259E2830C3EB5F
:1017A00043112A18C6EB4617880000EB470914F0CE
:1017B000010CD36808EB090A02D0012E00F0638106
:1017C000B3F5C87F80F2B08046F267641D11C6F29F
:1017D000666484FB0561DF17C7EB610404EB8400DA
:1017E0004FF0000E2E1AC3F3810503F00303169485
:1017F000179618951993F34677465169022900F018
:101800003C81002607EB4707B64BBD1903EB850665
:1018100096F8207096F8215096F8220096F823301A
:101820000E970F9510901193BCF1000F03D0259ED9
:10183000012E00F03F810229C2F83CB000F0548133
:1018400000260AF1FF340694CDF810A0B0460EA988
:101850008F59002F37DD049B069A16A808F1FF3533
:1018600003EB050A345802EB0801CD196FEA0A09A7
:1018700009EB050312A8214603F0010901F0DAF98A
:101880000AF1010BAB458AF801001BD0B9F1000F3A
:1018900007D012A8214601F0CDF90BF8010FAB4596
:1018A00010D0214612A801F0C5F921468BF801009D
:1018B00012A801F0BFF90BF101020BF1020BAB45CD
:1018C0005070EED1B8440436102EC0D1DDF810A00F
:1018D00000268AF816608AF81560089A249C259ECE
:1018E000099B151999192801059C00EBC102A5183F
:1018F000249CAB6A029D079906EB440000F5FC7638
:1019000012A845F82630039E326801F009FA3168C2
:10191000421802F007003060D0101BB0BDE8F08F15
:1019200012A801F087F9FFE5B3F5FA7FC0F28880CD
:1019300045F25654A3F5FA77C5F2555484FB074196
:10194000A1EBE77404EB44059069169400267B1B19
:10195000179319961896002800F00283189317948D
:10196000B6464FF0010B022747E7294612A801F0BF
:1019700061F9294608F8090012A801F05BF9294627
:10198000607012A801F056F92946A07012A801F063
:1019900051F92946E07012A801F04CF9294620714E
:1019A00012A801F047F92946607112A801F042F926
:1019B0002946A07112A801F03DF92946E07112A84C
:1019C00001F038F92946207212A801F033F92946AE
:1019D000607212A801F02EF93946A07212A801F027
:1019E00029F93946E07212A801F024F9394620732A
:1019F00012A801F01FF93946607312A801F01AF914
:101A00003946A07312A801F015F93946E07312A8FF
:101A100001F010F93946207412A801F00BF939468B
:101A2000607412A801F006F93946A07412A801F0FA
:101A300001F93946E07412A801F0FCF820754CE772
:101A4000A3F5C87646F26764B010C6F2666484FBFC
:101A50000015F117C1EB650451691694002704EBDA
:101A60008403C01A06F00306BE461997BB46012739
:101A70000229179018967FF4C4AE906900280CBF15
:101A800001260226BEE65910B32903F0010E40F3E9
:101A90006C82F32900F38D82B43900250C11C1F357
:101AA000810601F003011694179618911995AB461B
:101AB0000427A2E6169EC8F80C71C8F81051179FAB
:101AC000189DC8F814011998C8F8FC60C8F800718E
:101AD000C8F80451C8F80801C8F81831C8F8F8E087
:101AE000A9E600BFB82D01089069002800F03282F5
:101AF000214612A801F09EF8214608F8090012A814
:101B000001F098F821468AF8010012A801F092F835
:101B100021468AF8020012A801F08CF821468AF8C2
:101B2000030012A801F086F821468AF8040012A8E2
:101B300001F080F8012106918AF805004FF00308B2
:101B40000C46A3000EAD16AEEA18F0180AF1170401
:101B50000B920C904FF000090D94CDF828A00B9932
:101B600051F80930002B049362DD0A9A0C980D9C01
:101B700008EB480703EB08051037D71905EB4506B6
:101B8000A61950F8095007F1070BCBEB0601A1F19C
:101B9000030312A8294603F0010B01F04BF8294674
:101BA000F87112A801F046F82946387212A801F01F
:101BB00041F807F10A04B442787237D0BBF1000F44
:101BC00012D0294612A801F035F82946B87212A899
:101BD00001F030F82946607012A801F02BF8A070CF
:101BE00007F10D04B44221D0294612A801F022F8D1
:101BF0002946207012A801F01DF82946607012A82D
:101C000001F018F82946A07012A801F013F829462F
:101C1000E07012A801F00EF82946207112A801F018
:101C200009F8E71C0634B442B870DDD1049A904438
:101C30000698451C042D069509F104098FD1DDF89D
:101C400028A000268AF83D608AF83C608AF83B604C
:101C500043E69869002800F08181294612A800F027
:101C6000E9FF294608F8090012A800F0E3FF294619
:101C7000607012A800F0DEFF2946A07012A800F0E4
:101C8000D9FF2946E07012A800F0D4FF2946207140
:101C900012A800F0CFFF2946607112A800F0CAFF19
:101CA0002946A07112A800F0C5FF4FF0030AE071A9
:101CB0000AEB4A0808F11003294612A804EB0308AE
:101CC00000F0B8FF4646294606F8070F12A800F0B4
:101CD000B1FF2946707012A800F0ACFFCAF10509E7
:101CE0000AF1010ABAF1060FB07009F0010908F112
:101CF0000A063ED0B9F1000F15D0294612A800F00F
:101D000099FF2946307012A800F094FF29467070A0
:101D100012A800F08FFF0AF1010ABAF1060FB070A5
:101D200008F10D0625D0294612A800F083FF2946A8
:101D3000307012A800F07EFF2946707012A800F0E3
:101D400079FF2946B07012A800F074FF2946F070A0
:101D500012A800F06FFF2946307112A800F06AFF48
:101D60000AF1020A06F1030870710636BAF1060F8D
:101D7000D9D1394612A800F05DFF394684F8290010
:101D800012A800F057FF394684F82A0012A800F084
:101D900051FF394684F82B0012A800F04BFF39465A
:101DA00084F82C0012A800F045FF394684F82D0075
:101DB00012A800F03FFF394684F82E0012A800F068
:101DC00039FF394684F82F0012A800F033FF394656
:101DD00084F8300012A800F02DFF394684F8310055
:101DE00012A800F027FF394684F8320012A800F04C
:101DF00021FF394684F8330012A800F01BFF394652
:101E000084F8340012A800F015FF394684F8350034
:101E100012A800F00FFF394684F8360012A800F02F
:101E200009FF394684F8370012A800F003FF39464D
:101E300084F8380012A800F0FDFE394684F8390015
:101E400012A800F0F7FE002184F83A0084F83D1053
:101E500084F83C1084F83B103FE5294612A8CDF8E1
:101E600004C000F0E7FE294608F8090012A800F0B7
:101E7000E1FE2946607012A800F0DCFE2946A07041
:101E800012A800F0D7FE2946E07012A800F0D2FE9A
:101E90002946207112A800F0CDFE6071DDF804C063
:101EA000FFF7A5BB294612A8CDF804C000F0C2FE7A
:101EB0002946A07112A800F0BDFE2946E07112A8C3
:101EC00000F0B8FE2946207212A800F0B3FE2946A1
:101ED000607212A800F0AEFEA072DDF804C0FFF739
:101EE000C4BB394612A8CDF804C000F0A3FE3946A1
:101EF000E07212A800F09EFE3946207312A800F08E
:101F000099FE3946607312A800F094FE3946A0731A
:101F100012A800F08FFEE073DDF804C0FFF7E6BB07
:101F2000394612A800F086FE3946207412A800F047
:101F300081FE3946607412A800F07CFE3946A07418
:101F400012A800F077FE3946E07412A800F072FE85
:101F500020750BE4069080460446F2E58246A7E62B
:101F600086464FF0010B022747E448F63964C3F672
:101F7000E30484FB0157D817C0EBE70404EBC40566
:101F80004AF6AB23A1EB8501C2F6AA2383FB0167C6
:101F9000A7EBE17505EB45000026A1EB4003169485
:101FA000179518931996B346032726E44FF0FF3090
:101FB000B3E445F25655F439C5F2555585FB010693
:101FC000A6EBE17404EB44070020CB1B1694179397
:101FD00019901890834605270FE405211022FFF77A
:101FE000ADBB06210022FFF7EDBA05220B21FFF75A
:101FF00065BB05220621FFF720BB00BF2DE9F0419C
:10200000344E347886B014B106B0BDE8F081324D5C
:102010004FF40010012106F0BDFAA868012106F076
:102020009DFAA869012106F099FA4FF400100121E8
:1020300006F0BEFA4FF40010214606F0B9FA2868FF
:10204000297B042208F03AFB2869297F042208F042
:1020500035FB0DF11808AB88286848F8183D0222B6
:10206000012769468DF804208DF805208DF806704B
:102070008DF8074008F06AFAA98A28690091694634
:1020800008F064FA4FF4804806AD48F2A06367F3A5
:102090001F434FEA084045F8103D4BF6FF724FF4DE
:1020A000806340F4A8403946ADF80E20ADF81230F8
:1020B000ADF80C40ADF81040ADF814800EF05AF9B0
:1020C0004FEA084141F4A84029460EF0DFF8377086
:1020D0009AE700BFAC00002000000020F0B50646E3
:1020E0004FF4A84085B0C4F200000F4601210EF065
:1020F0004FF94FF4A8400121C4F20000C1F20001E1
:102100000EF08EF94FF4405450B118E04FF4A8404F
:10211000C4F200000EF084F988B9013C00F09C8103
:102120004FF4A8400121C1F20001C4F200000EF0FA
:1021300077F90121C1F20001013C0028E6D04FF4FB
:10214000A840C4F2000000210EF048F94FF4A84066
:10215000C4F20000314600224FF4A8440EF034F9D6
:10216000C4F2000402212046C1F200010EF058F929
:10217000C8B94FF4405506E020460EF051F990B929
:10218000013D00F0AA814FF4A844C4F200040221EA
:10219000C1F2000120460EF043F90221C1F2000114
:1021A000013D0028E8D04FF4A8408021C4F200008F
:1021B000C1F20001238B0EF033F94FF4405450B1BB
:1021C00018E04FF4A840C4F200000EF029F988B9D5
:1021D000013C00F0B7814FF4A8408021C1F200011A
:1021E000C4F200000EF01CF98021C1F20001013C94
:1021F0000028E6D04FF4A840C4F2000039460EF0A3
:1022000009F94FF4A8408021C4F20000C1F2000196
:102210000EF006F9002840F012814FF440540EE011
:102220004FF4A8408021C1F20001C4F200000EF07A
:10223000F7F8002840F0B180013C00F0BD804FF479
:10224000A8408021C1F20001C4F200000EF0E8F8BD
:10225000013C0028E4D04FF4A8400421C1F2000161
:10226000C4F200000EF0DCF80028D9D04FF4A840EA
:10227000C4F2000001210EF08BF84FF4A8400121B8
:10228000C4F20000C1F200010EF0CAF84FF440544D
:1022900050B118E04FF4A840C4F200000EF0C0F8AE
:1022A00088B9013C00F08F814FF4A8400121C1F2B0
:1022B0000001C4F200000EF0B3F80121C1F20001E8
:1022C000013C0028E6D04FF4A840C4F2000031469B
:1022D00001224FF4A8440EF077F8C4F20004022162
:1022E0002046C1F200010EF09BF8C8B94FF44055EA
:1022F00006E020460EF094F890B9013D00F0A4816C
:102300004FF4A844C4F200040221C1F200012046A7
:102310000EF086F80221C1F20001013D0028E8D04C
:102320004FF4A8404021C4F20000C1F20001238B09
:102330000EF076F84FF4405450B118E04FF4A84036
:10234000C4F200000EF06CF888B9013C00F0B181D5
:102350004FF4A8404021C1F20001C4F200000EF089
:102360005FF84021C1F20001013C0028E6D04FF4A3
:10237000A8400121C4F200000EF018F84FF4A84064
:10238000C4F200000EF048F804464FF4A840C4F22E
:10239000000001210EF022F84EE04FF4A840042185
:1023A000C4F20000C1F200010EF03AF800287FF4F8
:1023B0005DAF013C7FF443AF4FF4A840C4F200008E
:1023C00001210DF0F3FF4FF4A840C4F200000121F9
:1023D0000EF012F84FF4A8402146C4F200000EF0AF
:1023E0000BF84FF4A8404FF48046C4F200000DF003
:1023F00015FF04AD48F2A0633004C0F201034BF6B0
:10240000FF7240F4A8400121ADF80440ADF8084047
:102410004FF4806445F8103DADF80620ADF80A4051
:10242000ADF80C600DF0A6FF310441F4A8406946F8
:102430000DF02CFF4FF6FC7420B205B0F0BD4FF448
:10244000A8400421C4F20000C1F200010DF0E8FF31
:1024500000283FF4E2AE09E74FF4A840C4F20000C0
:1024600001210DF0A3FF4FF4A840C4F200000121A8
:102470000DF0C2FF4FF4A8402146C4F200000DF059
:10248000BBFF4FF4A8404FF48046C4F200000DF0AB
:10249000C5FE04AD48F2A0633004C0F201034BF660
:1024A000FF7240F4A8400121ADF80440ADF80840A7
:1024B0004FF4806445F8103DADF80620ADF80A40B1
:1024C000ADF80C600DF056FF310441F4A8406946A8
:1024D0000DF0DCFE4FF6FF74AEE7204601210DF053
:1024E00065FF204601210DF087FF204629460DF0AB
:1024F00083FF20460DF092FE4FF4804604AA48F276
:10250000A063C0F20103300442F8103D40F4A8403B
:102510004FF4806201214BF6FF74ADF80640ADF830
:102520000A20ADF80450ADF80850ADF80C600DF07D
:1025300021FF310441F4A84069460DF0A7FE4FF693
:10254000FE7479E74FF4A840C4F2000001210DF0B9
:102550002DFF4FF4A840C4F2000001210DF04CFF04
:102560004FF4A8402146C4F200000DF045FF4FF49F
:10257000A8404FF48046C4F200000DF04FFE04ADB9
:1025800048F2A0633004C0F201034BF6FF7240F43E
:10259000A8400121ADF80440ADF808404FF4806434
:1025A00045F8103DADF80620ADF80A40ADF80C60D6
:1025B0000DF0E0FE310441F4A84069460DF066FEDE
:1025C0004FF6FD7438E74FF4A840C4F20000012133
:1025D0000DF0ECFE4FF4A840C4F2000001210DF014
:1025E0000BFF4FF4A8402146C4F200000DF004FF99
:1025F0004FF4A8404FF48046C4F200000DF00EFEE8
:1026000004AD48F2A0633004C0F201034BF6FF7240
:1026100040F4A8400121ADF80440ADF808404FF463
:10262000806445F8103DADF80620ADF80A40ADF8DD
:102630000C600DF09FFE310441F4A84069460DF096
:1026400025FE4FF6FB74F7E6204601210DF0AEFEA5
:10265000204601210DF0D0FE204629460DF0CCFE8B
:1026600020460DF0DBFD4FF4804604AA48F2A0633B
:10267000C0F20103300442F8103D40F4A8404FF48A
:10268000806201214BF6FF74ADF80640ADF80A20D8
:10269000ADF80450ADF80850ADF80C600DF06AFECE
:1026A000310441F4A84069460DF0F0FD4FF6FA748C
:1026B000C2E64FF4A840C4F2000001210DF076FEFE
:1026C0004FF4A840C4F2000001210DF095FE4FF434
:1026D000A8402146C4F200000DF08EFE4FF4A84041
:1026E0004FF48046C4F200000DF098FD04AD48F2AE
:1026F000A0633004C0F201034BF6FF7240F4A8401F
:102700000121ADF80440ADF808404FF4806445F86D
:10271000103DADF80620ADF80A40ADF80C600DF0A4
:1027200029FE310441F4A84069460DF0AFFD4FF693
:10273000F97481E6F0B505464FF4A84085B0C4F2BF
:1027400000000F46012116460DF022FE4FF4A8406E
:102750000121C4F20000C1F200010DF061FE4FF44E
:10276000405450B118E04FF4A840C4F200000DF0FE
:1027700057FE88B9013C00F021814FF4A8400121A7
:10278000C1F20001C4F200000DF04AFE0121C1F2C5
:102790000001013C0028E6D04FF4A840C4F200003C
:1027A000294600224FF4A8440DF00EFEC4F20004A6
:1027B00002212046C1F200010DF032FEC8B94FF4EB
:1027C000405506E020460DF02BFE90B9013D00F08B
:1027D00036814FF4A844C4F200040221C1F2000182
:1027E00020460DF01DFE0221C1F20001013D00282E
:1027F000E8D04FF4A8408021C4F20000C1F20001EB
:10280000238B0DF00DFED8B94FF4405409E04FF47E
:10281000A840C4F200000DF003FE88B9013C00F0AE
:1028200050814FF4A8408021C1F20001C4F20000A1
:102830000DF0F6FD8021C1F20001013C0028E6D038
:102840004FF4A840C4F2000039460DF0E3FD4FF408
:10285000A8408021C4F20000C1F200010DF0E0FDAB
:10286000D8B94FF4405409E04FF4A840C4F2000036
:102870000DF0D6FD88B9013C00F064814FF4A8400A
:102880008021C1F20001C4F200000DF0C9FD8021D9
:10289000C1F20001013C0028E6D04FF4A840C4F288
:1028A000000031460DF0B6FD4FF4A8408021C4F27F
:1028B0000000C1F200010DF0B3FD002840F0F480EB
:1028C0004FF440540BE04FF4A8408021C1F20001C6
:1028D000C4F200000DF0A4FD18BB013C2DD04FF454
:1028E000A8408021C1F20001C4F200000DF098FD63
:1028F000013C0028E7D04FF4A8400421C1F20001B8
:10290000C4F200000DF08CFD0028DCD04FF4A8408C
:10291000C4F2000001210DF049FD002000B205B015
:10292000F0BD4FF4A8400421C4F20000C1F2000140
:102930000DF076FD0028D0D0E8E74FF4A840C4F2AF
:10294000000001210DF032FD4FF4A840C4F2000058
:1029500001210DF051FD4FF4A8402146C4F20000C2
:102960000DF04AFD4FF4A840C4F200000DF056FCF3
:102970004FF4804604AD48F2A063C0F20103310475
:1029800041F4A8404BF6FF7245F8103D01214FF489
:102990008063ADF80620ADF80A30ADF80440ADF81C
:1029A0000840ADF80C600DF0E5FC300440F4A840A0
:1029B00069460DF06BFC4FF6FB70AFE74FF4A84093
:1029C000C4F2000001210DF0F1FC4FF4A840C4F264
:1029D000000001210DF010FD4FF4A8402146C4F283
:1029E00000000DF009FD4FF4A840C4F200000DF006
:1029F00015FC4FF4804604AD48F2A061C0F201011D
:102A0000330443F4A8404BF6FF724FF4806345F85B
:102A1000101D0121ADF80620ADF80A30ADF80440D4
:102A2000ADF80840ADF80C600DF0A4FC300440F4A3
:102A3000A84069460DF02AFC4FF6FF706EE720466D
:102A400001210DF0B3FC204601210DF0D5FC2046FC
:102A500029460DF0D1FC20460DF0E0FB4FF48046F6
:102A600004AC48F2A061C0F20101320442F4A84073
:102A70004BF6FF734FF4806244F8101D0121ADF84E
:102A80000630ADF80A20ADF80450ADF80850ADF8A6
:102A90000C600DF06FFC300440F4A84069460DF066
:102AA000F5FB4FF6FE7039E74FF4A8400421C4F25D
:102AB0000000C1F200010DF0B3FC00283FF400AFAC
:102AC00024E74FF4A840C4F2000001210DF06EFC91
:102AD0004FF4A840C4F2000001210DF08DFC4FF42A
:102AE000A8402146C4F200000DF086FC4FF4A84037
:102AF000C4F200000DF092FB4FF4804604AD48F2A2
:102B0000A061C0F20101330443F4A8404BF6FF7208
:102B10004FF4806345F8101D0121ADF80620ADF893
:102B20000A30ADF80440ADF80840ADF80C600DF087
:102B300021FC300440F4A84069460DF0A7FB4FF695
:102B4000FD70EBE64FF4A840C4F2000001210DF047
:102B50002DFC4FF4A840C4F2000001210DF04CFC04
:102B60004FF4A8402146C4F200000DF045FC4FF49C
:102B7000A840C4F200000DF051FB4FF4804604ADB4
:102B800048F2A061C0F20101320442F4A8404BF6C1
:102B9000FF734FF4806245F8101D0121ADF8063037
:102BA000ADF80A20ADF80440ADF80840ADF80C606F
:102BB0000DF0E0FB300440F4A84069460DF066FBE0
:102BC0004FF6FC70AAE600BF30B540F2640383B054
:102BD000C2F2000346F220040125C2F20004009371
:102BE00046F2240046F2D44240F23003C2F2000022
:102BF0002946C2F20002C2F20003257007F082F9F2
:102C000003B030BD10B5054C2078032804D004482B
:102C1000044907F09BFA207810BD00BF2060002017
:102C200024600020D4640020002380E80C0083602E
:102C3000C16070474268F0B401F01F018468034628
:102C4000C1F11F0022FA00F002FA01F2611A4008F5
:102C500000295A60996001DBF0BC7047DF68494287
:102C6000032F39DC00245C60002F55D01C682246FD
:102C700007EB040C12F8015BE4432D026444624547
:102C800083E8240004F0010413D01CB112F8014BB6
:102C9000254309E0144614F8016B35432D0283E8FF
:102CA000300052781543621C2D02624583E82400EF
:102CB000F0D1C7F10302D40005FA04F5C1F12002F6
:102CC00025FA02F205FA01F50024DC60C1EBC70722
:102CD00010439F605D60BFE71A681446961C14F8A5
:102CE000015B2D0683E8300054781E6045EA0444F9
:102CF0005C609578D61C44EA05241E605C60D5783B
:102D0000043225433C1FC1F120071A60DC6025FA1C
:102D100007F205FA01F5DBE73D463A46D4E700BF86
:102D200010B404688368611AC3EBC100801A10BC38
:102D3000704700BF30B1036823B15869003018BF35
:102D4000012070474FF0FF30704700BF2DE9F00FB2
:102D500084B0002800F0DF800368002B00F0DB80E7
:102D60000A78FF2A40F0D7804A7802F0E004E02C8D
:102D700040F0D180D20894071ABF02F0010282F01D
:102D8000010202221A7091F801A0CAF3410ACAF1A5
:102D900004045C6091F801C000940CF0010585F01A
:102DA000010CC3F808C08E783509DD608C78C4F357
:102DB00081041C618E78C6F340065E6102968E78AF
:102DC00006F001069E61CE78B6091E7791F8038061
:102DD000C8F30118C3F8208091F80380C8F3C00835
:102DE000C3F8248091F80380C8F38008C3F82880D2
:102DF00091F80380032C08F00308C3F82C8000F03E
:102E00008A80009F042F00F086800F2D00F08380C1
:102E10004FF0DE0707FB02FB4FF04A0909FB04B83D
:102E2000DFF804B1012E08EB0B09C3F8349005D08C
:102E30004FF00008032EC3F8208069D04FF0020B3A
:102E40004FEA420909EB0208CAF1030ACDF80C90D7
:102E5000CDF804A0DFF8D490C0F8BCB7C24408EBAA
:102E6000040B39F91A90DFF8C8A080F8D4275AF873
:102E70002B70002A14BF4FF0010A4FF0020AC0F86D
:102E8000C077009FC0F8C4A799FBFAF9C0F8D077C3
:102E9000C0F8C8975DB3DDF80490DDF80CB0C8EB5E
:102EA0000818C4EB041404EB0807C9EB09127C19D9
:102EB00090441A4A032E18BF0BF1010B32F914701B
:102EC000174C184A34F91B4045443C1B32F9152075
:102ED000C2EB421502EB8502043C029DA4EB4C04BC
:102EE000D2002C195E46C0F8B827C0F8CC47BCF118
:102EF000000F06D1C3F830C0042004B0BDE8F00FC5
:102F000070470879497941EA00221A630620F4E7FC
:102F10004FF0010B94E74FF0FF30EEE7C05301088C
:102F2000D0540108F854010824510108E454010860
:102F3000085601082DE9F00F88B00690002801F02E
:102F4000EB800368002B01F0E080406800900028CF
:102F500001F0E8801A780E7801924C7891F802908E
:102F6000002A41F04E8030061A7FCB78069D40EA59
:102F7000044444EA0928032A48EA030CD5F8BCA70C
:102F8000009C0CBF1A261C264FEA4C2222FA06F39C
:102F90000CBF112620260CBF052503254FEA530040
:102FA0004FEADC590CBF4FF00D084FF01C08079694
:102FB0000CBF12261426BAF1000FC4F8009060600E
:102FC00001F1040302FA05F413DD009D019F14359D
:102FD000009901EB07120432E10F6400013E01F198
:102FE0003E8042F8041FAA42F6D1013710355745FA
:102FF000EED1069DD5F8C427002A059240F36381DF
:103000000698D0F8BC570021049102954146254608
:10301000029C002C40F34D81049F07EBC702140172
:103020000020039460E0AE00023C4FEA957800F186
:103030002085F60FED00013CC2F8148000F1DB841E
:103040004FEAD5696D01053C966100F195844FEA20
:10305000D56C6D01B4F1050BC2F81C9000F18383AF
:1030600000244FEA55795462ED00BBF10304C2F825
:1030700020C000F1BE834FEA557CED00033CC2F84E
:10308000289000F1F8834FEA5579ED00033CC2F82F
:103090002CC000F132844FEAD57C6D00C2F830902C
:1030A000B8F1000F40F01781DDF80090566B49F839
:1030B0000780C2F80480C2F80C80C6F11406019F94
:1030C0009663002F74D00026D663661E7AD4EF0F65
:1030D0006D00013EC2F840C000F1AF805764029A13
:1030E0000130824240F3E580039A009C00EBC00768
:1030F00002EBC7072837E2192C030C3E4FEA155C98
:1031000000F1DA81E40D6D05DDF80080093E48F834
:1031100007C000F194814FEA15682D02083E546003
:1031200000F15681019CC2F80880002C0CBF4FF0C2
:103130001B0C4FF0160C0CBF0424092425FA0CF9C3
:1031400005FA04F5341B4FEA590C00F10881EE0F23
:103150006D00013CC2F80CC000F1C5801661002E64
:103160007FF461AF566196616F01EE0E053C00F190
:10317000C182FF0EAD02053CD66100F18282EE0EE7
:103180006D01053C176200F143822F0F2D01043CB5
:10319000566200F104826E0FED00033C576300F1AC
:1031A000C681019F96634FEAD57C6D00002F8AD1BE
:1031B000013C00F144856646EF0FD6636D00661E44
:1031C000BC4684D57642032900F3A284002900F08E
:1031D000D9865C18DD4313F8017B65193F02A342D1
:1031E00005F0010512D02DB113F8015B2F433F020A
:1031F000A3420BD01D465B7815F8018B47EA080700
:1032000043EA07276B1C3F02A342F3D1C1F1030439
:10321000E50007FA05F707FA06F5C6F1200427FAD4
:1032200004F4EF0F6D00C6EBC10600214CEA040C5C
:10323000013EC2F840C07FF551AF0329C6F1000935
:1032400000F35184002900F08686DC4303EB01087B
:1032500013F8016B08EB04053602434505F0010441
:1032600011D02CB113F8015B2E43360243450AD02E
:103270001C465B7814F8015B2E4343EA0626631C68
:1032800036024345F4D1C1F10304E50006FA05F620
:10329000C9F1200C26FA0CF806FA09F5C9EBC106AB
:1032A000002147EA08075764029A013082423FF73B
:1032B0001BAF0498059A441C94420494FFF6A8AEF0
:1032C000009BD3F80090069D0798C5F8D89708B0E2
:1032D000BDE8F00F7047B8F1020F00F0A884072690
:1032E00056630D26EBE60329C4F1000800F3888439
:1032F000002900F04386DC4303EB010913F801CBFE
:1033000009EB04054B4505F001044FEA0C2C15D0E0
:103310003CB113F8015B4CEA050C4B454FEA0C2C11
:103320000CD01C465B7814F8015B4CEA050C43EAB0
:103330000C25631C4B454FEA052CF2D1C1F1030467
:10334000E5000CFA05F4C8F1200924FA09F904FA99
:1033500008F5C8EBC104002146EA0906FEE664420E
:10336000032900F33384002900F0F98503EB0108F9
:10337000DD4313F8016B45443602434505F0010572
:1033800012D02DB113F8015B2E43360243450BD00A
:103390001D465B7815F8019B46EA090643EA0626B6
:1033A0006B1C36024345F3D1C1F103084FEAC8054F
:1033B00006FA05F606FA04F5C4F1200926FA09F81A
:1033C000EE0F6D00C4EBC10400214CEA080CC0E60E
:1033D0000329C6F1000C00F3E583002900F0D7852E
:1033E000DC4303EB010913F8016B09EB040536021A
:1033F0004B4505F0010411D02CB113F8015B2E43AD
:1034000036024B450AD01C465B7814F8015B2E430C
:1034100043EA0626631C36024B45F4D1C1F103048E
:10342000E50006FA05F6CCF1200926FA09F906FAB4
:103430000CF5CCEBC106002148EA090872E6764299
:10344000032900F39483002900F0938503EB01081E
:10345000DD4313F801CB4544434505F001054FEA30
:103460000C2C15D03DB113F8015B4CEA050943451E
:103470004FEA092C0CD01D465B7815F8019B4CEAED
:10348000090C43EA0C296B1C43454FEA092CF2D185
:10349000C1F10305ED000CFA05FC0CFA06F5C6F1C6
:1034A00020082CFA08F94FEA15682D02C6EBC10670
:1034B000002144EA090431E67642032900F33F8300
:1034C000002900F051855C18DD4313F8018B651964
:1034D000A34205F001054FEA082815D03DB113F8C5
:1034E000015B48EA0509A3424FEA09280CD01D46B2
:1034F0005B7815F8019B48EA090843EA08296B1C28
:10350000A3424FEA0928F2D1C1F10304E50008FA09
:1035100005F808FA06F5C6F1200428FA04F9EC0DBE
:103520006D02C6EBC10600214CEA090CECE56442D1
:10353000032900F37584002900F0488503EB010C92
:10354000DD4313F8017B65443F02634505F0010547
:1035500012D02DB113F8015B2F433F0263450BD00E
:103560001D465B7815F8018B47EA080743EA0727F1
:103570006B1C3F026345F3D1C1F10305ED0007FA6F
:1035800005F707FA04F5C4F120094FEAD57C27FABC
:1035900009F76D00C4EBC1043E4300218FE564428E
:1035A000032900F32384002900F0038503EB0109BC
:1035B000DD4313F8016B4D4436024B4505F0010520
:1035C00012D02DB113F8015B2E4336024B450BD0C0
:1035D0001D465B7815F8018B46EA080643EA062685
:1035E0006B1C36024B45F3D1C1F1030C4FEACC05FD
:1035F00006FA05F606FA04F5C4F1200926FA09FCD4
:103600006E0FED00C4EBC104002147EA0C07C4E5CE
:103610006442032900F36F84002900F0C58403EBA2
:103620000109DD4313F8017B4D443F024B4505F092
:10363000010512D02DB113F8015B2F433F024B451A
:103640000BD01D465B7815F8018B47EA080743EA63
:1036500007276B1C3F024B45F3D1C1F1030C4FEA26
:10366000CC0507FA05F707FA04F5C4F1200927FA93
:1036700009FC2F0F2D01C4EBC104002146EA0C0602
:1036800085E56442032900F31C84002900F0878447
:1036900003EB0109DD4313F8016B4D4436024B4542
:1036A00005F0010512D02DB113F8015B2E4336024F
:1036B0004B450BD01D465B7815F8018B46EA080692
:1036C00043EA06266B1C36024B45F3D1C1F1030CCD
:1036D0004FEACC0506FA05F606FA04F5C4F120090E
:1036E00026FA09FCEE0E6D01C4EBC104002147EA85
:1036F0000C0746E56442032900F35F83002900F0CC
:10370000728403EB0109DD4313F8017B4D443F0252
:103710004B4505F0010512D02DB113F8015B2F4385
:103720003F024B450BD01D465B7815F8018B47EAED
:10373000080743EA07276B1C3F024B45F3D1C1F151
:10374000030C4FEACC0507FA05F707FA04F5C4F1B4
:10375000200927FA09FCEF0E6D01C4EBC10400211A
:1037600046EA0C0607E50329CBF1000400F3D482F6
:10377000002900F0418403EB010ADD4313F801BB8B
:103780005544534505F001054FEA0B2915D03DB1CD
:1037900013F8015B49EA050953454FEA09290CD0A2
:1037A0001D465B7815F801BB49EA0B0943EA092B72
:1037B0006B1C53454FEA0B29F2D1C1F1030A4FEAC2
:1037C000CA0509FA05F909FA04F5C4F1200B29FA2A
:1037D0000BFA4FEA5579ED00C4EBC10B0021002430
:1037E0004CEA0A0C5462BBF10304C2F820C07FF516
:1037F00042AC6442032900F34983002900F0E283CC
:1038000003EB010ADD4313F801CB5544534505F0A2
:1038100001054FEA0C2C15D03DB113F8015B4CEAC1
:10382000050C53454FEA0C2C0CD01D465B7815F85F
:1038300001BB4CEA0B0C43EA0C2C6B1C53454FEAC2
:103840000C2CF2D1C1F1030A4FEACA050CFA05FCAF
:103850000CFA04F5C4F1200A2CFA0AFA4FEA557C56
:10386000ED00C4EBC104002149EA0A09033CC2F897
:1038700028907FF508AC6442032900F319820029DF
:1038800000F0A98303EB010ADD4313F8019B5544C3
:10389000534505F001054FEA092915D03DB113F84C
:1038A000015B49EA050953454FEA09290CD01D4639
:1038B0005B7815F801BB49EA0B0943EA09296B1C3F
:1038C00053454FEA0929F2D1C1F1030A4FEACA056B
:1038D00009FA05F909FA04F5C4F1200A29FA0AFAE5
:1038E0004FEA5579ED00C4EBC10400214CEA0A0C03
:1038F000033CC2F82CC07FF5CEAB6442032900F331
:10390000AA82002900F05A8303EB010ADD4313F871
:1039100001CB5544534505F001054FEA0C2C15D059
:103920003DB113F8015B4CEA050C53454FEA0C2CF2
:103930000CD01D465B7815F801BB4CEA0B0C43EA32
:103940000C2C6B1C53454FEA0C2CF2D1C1F1030A2D
:103950004FEACA050CFA05FC0CFA04F5C4F1200A7A
:103960002CFA0AFA4FEAD57C6D00C4EBC1040021A1
:1039700049EA0A09FFF792BB6442032900F3028275
:10398000002900F0358303EB010ADD4313F801BB86
:103990005544534505F001054FEA0B2C15D03DB1B8
:1039A00013F8015B4CEA050C53454FEA0C2C0CD084
:1039B0001D465B7815F801BB4CEA0B0C43EA0C2B57
:1039C0006B1C53454FEA0B2CF2D1C1F1030A4FEAAD
:1039D000CA050CFA05FC0CFA04F5C4F1200B2CFA0C
:1039E0000BFA4FEAD56C6D01C4EBC104002149EA22
:1039F0000A09FFF72FBB6442032900F3A8810029BD
:103A000000F0ED8203EB010BDD4313F8019B5D44F5
:103A10005B4505F001054FEA092915D03DB113F8C2
:103A2000015B49EA050C5B454FEA0C290CD01D46A9
:103A30005B7815F801AB49EA0A0C43EA0C296B1CC8
:103A40005B454FEA0929F2D1C1F10305ED0009FAFE
:103A500005FB0BFA04F5C4F1200C4FEAD5692BFAEB
:103A60000CFC6D01C4EBC104002146EA0C06FFF713
:103A7000EABA6442032900F33681002900F08B8200
:103A800003EB010CDD4313F8016B6544360263451B
:103A900005F0010512D02DB113F8015B2E4336025B
:103AA00063450BD01D465B7815F8019B46EA090675
:103AB00043EA06266B1C36026345F3D1C1F1030BC2
:103AC0004FEACB0C06FA0CF606FA04F5C4F120090D
:103AD00026FA09FBEE0F6D00C4EBC104002148EA91
:103AE0000B08FFF7A8BA1E7893F801809D78DC7860
:103AF000360646EA084646EA05252543C9F120066A
:103B000025FA06F80433043905FA09F5FFF7C9BBAD
:103B10001F7893F801809D78DC783F0647EA0847D4
:103B200047EA05252C4304FA06F5C6F12006EF0FF7
:103B30000433043924FA06F46D00FFF777BB93F8D9
:103B4000008093F801909D78DC784FEA086848EA95
:103B5000094949EA05252C4304FA06F5C6F1200671
:103B600024FA06F90433EC0D04396D02DCE493F811
:103B7000008093F8019093F802C0DD784FEA08685E
:103B800048EA094949EA0C2C4CEA050808FA06F506
:103B9000C6F1200628FA06F904334FEA15680439FD
:103BA0002D0286E41E7893F801909D78DC78360625
:103BB00046EA094646EA05252543CCF1200625FAC2
:103BC00006F90433043905FA0CF535E493F800805E
:103BD00093F801909E78DD784FEA086848EA094931
:103BE00049EA062646EA050808FA04F5C4F1200465
:103BF000EE0F0433043928FA04F86D00FFF7E5BB33
:103C000093F800C093F801909D78DC784FEA0C6C33
:103C10004CEA094949EA05252543C8F1200425FA5B
:103C200004F90433043905FA08F5FFF795BB002EB3
:103C30007FF455AB082757630C26FFF740BA644260
:103C4000032900F37281002900F058825F18DD43D8
:103C500013F8016B7D193602BB4205F0010512D045
:103C60002DB113F8015B2E433602BB420BD01D462B
:103C70005B7815F8018B46EA080643EA06266B1CBA
:103C80003602BB42F3D1C1F10307FD0006FA05F687
:103C900006FA04F5C4F1200726FA07F6EF0F6D00C7
:103CA000C4EBC104002146EA0C06BC46FFF70CBA7F
:103CB00093F800A093F801B093F80290DD784FEAF2
:103CC0000A6A4AEA0B4A4AEA092949EA050A0AFA4B
:103CD00004F5C4F120044FEA5579043304392AFA73
:103CE00004FAED0002E693F800B093F801909E7894
:103CF000DD784FEA0B6C4CEA094B4BEA062646EAA4
:103D0000050909FA04F5C4F12004EE0F043304395F
:103D100029FA04FB6D00E2E693F800A093F801B0E5
:103D200093F80290DD784FEA0A6A4AEA0B4B4BEAB5
:103D3000092949EA050A0AFA04F5C4F1200B4FEAF9
:103D40005579043304392AFA0BFAED0047E593F864
:103D5000009093F801A093F802B0DD784FEA096C67
:103D60004CEA0A4949EA0B2B4BEA050C0CFA04F51C
:103D7000C4F120044FEAD569043304392CFA04FC59
:103D80006D0172E693F800A093F801B093F802C0B9
:103D9000DD784FEA0A6A4AEA0B4B4BEA0C2C4CEAF4
:103DA000050A0AFA04F5C4F120044FEAD56C04337D
:103DB00004392AFA04FA6D0119E693F800C093F861
:103DC00001809F78DD784FEA0C6949EA084C4CEA9B
:103DD000072747EA050909FA04F5C4F12004EF0EA4
:103DE0000433043929FA04FC6D01B9E493F800C0E6
:103DF00093F801809E78DD784FEA0C6949EA084C17
:103E00004CEA062646EA050909FA04F5C4F120043D
:103E10006E0F0433043929FA04FCED00FFF7F5BBFB
:103E200093F800C093F801809F78DD784FEA0C6921
:103E300049EA084C4CEA07272F4307FA04F5C4F176
:103E4000200427FA04F74FEAD57C043304396D00C7
:103E50003E43FFF734B993F800A093F801B093F80C
:103E600002C0DD784FEA0A6A4AEA0B4A4AEA0C2C99
:103E70004CEA050A0AFA04F5C4F120044FEAD57C9D
:103E8000043304392AFA04FA6D0071E593F800A0AE
:103E900093F801B093F802C0DD784FEA0A6A4AEA63
:103EA0000B4A4AEA0C2C4CEA050A0AFA04F5C4F15A
:103EB00020044FEA557C043304392AFA04FAED0051
:103EC000D2E493F800C093F801809E78DD784FEA41
:103ED0000C6949EA084C4CEA062646EA050909FA43
:103EE00004F5C4F12004EE0E0433043929FA04FC6D
:103EF0006D01FFF7FCBB93F800C093F801809F7839
:103F0000DD784FEA0C6949EA084C4CEA072747EA92
:103F1000050909FA04F5C4F120042F0F043304390C
:103F200029FA04FC2D01FFF7A9BB1F7893F8018043
:103F30009E78DD783F0647EA084747EA06262E4383
:103F400006FA04F5C4F12004EF0F0433043926FA0D
:103F500004F66D00A7E60D468846FFF79FB90D46AB
:103F60000E468846FFF72EBA0D460C468946FFF7E7
:103F7000D8BA0D4688468946FFF798BA0D46894655
:103F8000FFF7E7B90D460F460C46FFF74CB90D4653
:103F90008946FFF74EBA0D460E468B469CE50D4608
:103FA0000E468C46FFF7A0BB0D460F468C46FFF72A
:103FB00062BB0D460E468C46FFF724BB0D468C4671
:103FC0008A46D2E40D468C468A464AE40D468C4623
:103FD0000F46FFF7DFBA0D4689468A4683E40D4651
:103FE00089468C463EE50D460F468C46FFF7B5BB2D
:103FF0000D468C468A46F7E40D4689468A46FFF709
:10400000EBBB30061D7FCB7840EA044242EA09262A
:10401000032D46EA03044FEA04220CBF1E251D258A
:1040200022FA05F34FEA530001F1040300994FEA25
:1040300014690CBF092611260CBF0124022407961F
:104040000CBF4FF005084FF00D08C1F800900CBFF1
:104050001726162602FA04F44860FEF7CABFB8F124
:10406000030FC6F1000C32DCB8F1000F4AD003EBAD
:104070000806D84313F8014B30182402B34200F06D
:10408000010012D028B113F8010B04432402B342FB
:104090000BD018465B7810F801BB44EA0B0443EAE6
:1040A0000424431C2402B342F3D1C8F10306F000F8
:1040B00004FA00F4CCF1200624FA06F004FA0CF419
:1040C000CCEBC80601434FF00008FEF78ABF1C780E
:1040D00093F801B09E78D878240644EA0B4444EA69
:1040E00006240443CCF1200624FA06F00433A8F198
:1040F000040804FA0CF40143FEF773BF0D460F46A3
:104100000E46CDE544464046DAE74FF0FF38CDF89D
:104110001C804046FFF7DBB84FF0FF36079630466D
:10412000FFF7D5B84FF0FF39CDF81C904846FFF7A0
:10413000CEB800BF2DE9F04F06468DB08946002865
:1041400000F07E810768002F00F07A8140680990B6
:10415000002800F07581B2680892002A00F0708192
:10416000F568002D00F06C81D6F81080B8F1000FD2
:1041700000F06681D6F8BC370024A3420B940A9461
:1041800036DD01EBC10BC1EB411A4FEA0B1B4FEAC5
:104190008A0A079704EBC40004EB44070BEBC00E3C
:1041A00008EBC703099F0EF1280C07EB0C0EC4EBBC
:1041B0004411089FCDF800E00AEB4101791804F59D
:1041C000906203F546730191029305EB820205EBC1
:1041D00000204146079BFCF763FF05EB840202F5D4
:1041E00090570134B860D6F8BC07A042D2DC079FD4
:1041F000386A00284ED005F59054A168002975DD75
:10420000E368002B72DD420811D0C20745D5D8F80B
:104210003003002840F0FE80D8F844137B6B4A1C22
:10422000284633F912100AAA07F08AFA386AC30737
:104230001DD53B782168002B3AD1099A09EBC903B7
:1042400002EB0313401008F5467201900092D3F878
:10425000882008980292C9EB491C00EB8C030AAA3B
:10426000039228463A463E3307F0F6FA386A88B198
:1042700094E80C000A99B1FA81F09A42A8BF13465B
:10428000411E0B9AB2FA82F0421EA160E2602360E6
:10429000636000200DB0BDE8F08F94E80A009942F9
:1042A000B8BF194628460AAA07F04AFA386ABEE794
:1042B000099A09EBC90602EB0613089A4010F83276
:1042C00008F54676029000960192D3F88820089867
:1042D0000392C9EB491E00EB8E030AAA04922846FA
:1042E0003A463E3307F0CEFC386AC0E72668002E17
:1042F00044DD2B46012205EB860653F804BBC5EBD3
:10430000060ACCF20002AAF1040C93456FF040417A
:10431000CCF3800AC0F28B808B4501DD43F8041C8E
:10432000B3422BD0BAF1000F0AD053F804AB924538
:10433000C0F283808A4501DD43F8041CB3421DD0DE
:10434000B44609E043F8042C53F8046B96420FDAA4
:1043500043F8042C634511D053F8046B9642F1DB0B
:104360008E42C8BF43F8041C53F8046B9642EFDB3F
:104370008E42EFDD634543F8041CEDD16668002EE4
:104380007FF741AF05F5106303EB86060122D5F8F0
:1043900000B9C3EB060ACCF20002AAF1040393456C
:1043A000C3F3800A6FF0404105F604133CDB8B45F4
:1043B00001DD43F8041CB3423FF425AFBAF1000F0E
:1043C0000AD053F804AB924534DB8A4501DD43F84B
:1043D000041CB3423FF417AFB4460AE043F8042C80
:1043E00053F8046B964210DA43F8042C63453FF40B
:1043F0000AAF53F8046B9642F0DB8E42C8BF43F815
:10440000041C53F8046B9642EEDB8E42EEDD43F85B
:10441000041CEBE7796BD8F8402301EB4203B3F9B6
:10442000300000EB40013DE743F8042CC3E743F8BC
:10443000042C75E743F8042CCBE743F8042C7DE704
:104440004FF0FF3026E700BFF0B402EBC20245F6A2
:1044500060441701C0F601043B1985689E6986FB1C
:10446000052582693C5984FB0262AD180D604468E1
:10447000DE6986FB0424C2695D6885FB0262A418BC
:104480004C6004681E6A86FB0424026A9D6885FBF2
:104490000262A4188C6004685E6A86FB0424026AC7
:1044A000DD6885FB0262A418CC6044689E6A86FBC6
:1044B0000424C2691D6985FB0262A4180C6184682A
:1044C000DE6A86FB042482695D6985FB0262A418AA
:1044D0004C6142699C6984FB02528A610269DC6911
:1044E00084FB0252CA61C2681C6A84FB02520A62DF
:1044F000C2685C6A84FB02524A6202699C6A84FB5D
:1045000002528A624269DB6A83FB02020020CA62AD
:1045100048640864C863886348630863F0BC7047F4
:104520002DE9F00F9946D30792B0884640F15982A1
:10453000D0F880700268C9F11F0C01247B4204FA94
:104540000CF606F1FF3AD417D9178AEA04068AEA6C
:10455000010542FA0CFB43FA0CF75C4518BF3246E2
:10456000B94218BF2B4602FA09F203FA09F30260B6
:10457000C0F88030D8F800600893F7178AEA07017E
:1045800046FA0CF4A74218BF0E4606FA09F5C8F819
:104590000050D0F880310792D0F800215B42D41748
:1045A000D91742FA0CF78AEA01058AEA040643FAA7
:1045B0000CFBBC4208BF1646594518BF2B4606FAED
:1045C00009F203FA09F3C0F80021C0F88031D8F8E5
:1045D00004700293FE178AEA060147FA0CF4A64219
:1045E00018BF0F4607FA09F5C8F80450D0F8803212
:1045F0000392D0F800225B42D517D91742FA0CFB80
:1046000043FA0CF68AEA05078AEA01045D4508BF09
:104610001746B14208BF1C4607FA09F204FA09F32B
:10462000C0F80022C0F88032D8F808500593EF1780
:104630008AEA070145FA0CF6B74218BF0D4605FA9B
:1046400009F4C8F80840D0F880330492D0F8002369
:104650005B42D417D91742FA0CF743FA0CFB8AEAEB
:1046600001058AEA0406BC4208BF164659450CBF3C
:104670001A462A4602FA09F406FA09F3C0F800338A
:10468000C0F88043D8F80C700693FE178AEA06013A
:1046900047FA0CF5AE4218BF0F4607FA09F2C8F800
:1046A0000C20D0F88034D0F8002409945B42D41751
:1046B000D9178AEA04068AEA010542FA0CFB43FA92
:1046C0000CF75C4518BF3246B94218BF2B4602FAB8
:1046D00009F203FA09F30A92C0F80024C0F8803402
:1046E000D8F810600B93F7178AEA070146FA0CF422
:1046F000A74218BF0E4606FA09F5C8F81050D0F8C0
:104700008035D0F800255B42D617DC1742FA0CFB47
:1047100043FA0CF78AEA06058AEA04015E4508BFF7
:104720001546BC4208BF194605FA09F201FA09F319
:10473000C0F80025C0F88035D8F814600C92F51741
:104740008AEA050746FA0CF4A54218BF3E4606FA67
:1047500009F1C8F81410D0F880260D93D0F800366F
:104760005242DC17D1178AEA04068AEA010543FAA5
:104770000CF742FA0CFB594518BF2A46BC4218BF39
:10478000334603FA09F302FA09F4C0F80036C0F818
:104790008046D8F818700E93FE178AEA060147FA89
:1047A0000CF5AE4218BF0F4607FA09F2C8F81820F8
:1047B000D0F88037D0F800270F945B42D417D91770
:1047C0008AEA04068AEA010542FA0CFB43FA0CF76E
:1047D000B94218BF2B465C4518BF324602FA09F2AF
:1047E00003FA09F4C0F80027C0F88047D8F81C3055
:1047F0000399029F1194DC178AEA040543FA0CF628
:10480000B44218BF2B461092049C039ECA17F91796
:10481000029F03FA09F3C8F81C30E51781EA070480
:10482000059F5640FB17049FB61A069AC1EB040B6E
:104830006F400297D117059C4BEA0602069EDDF8F1
:1048400008B04E405C400296C5EB0B070A9E099DDE
:10485000E41AD0F88038174327435A42029C039742
:10486000F317099ED0F80078ED1785EA060B661A53
:104870000B99CC17F917D71702970A9F5F40049737
:10488000039F3E430B9FC5EB0B0B6740069746EA21
:104890000B0BD0F80078049E0C9DF31A47FA0CF627
:1048A00042FA0CF703970C9F0A93ED176F40099794
:1048B0000A9F04968AEA01034BEA070B0593029EBE
:1048C0000D9BCDF828B0DDF818B0059FC4EB0B04A4
:1048D0000694DDF810B0D0F80048594518BF3C46A2
:1048E0002146039F029C8AEA0606BC4218BF324654
:1048F00001FA09F60396099E0E990D9C069F751BF9
:1049000002FA09F2039E0292DB17CA17C0F8006888
:1049100083EA0401029E0A9CC0F880683C430E981A
:104920000F9F2C430F9DFF175040CB1A87EA050BB2
:104930001099119D1C43831A079A0898CE17D11716
:10494000EA17109D1C43C7EB0B0B029B039F0494BB
:104950007540DC170695079B0594FD17D8F8207065
:10496000FC1781EA03070797089BC01780EA030733
:10497000119B089782EA0307049B43EA0B0B069BF3
:104980009E1B089B181A079BBA1A039F591A4BEAD9
:10499000060B0791029E059B85EA0701D8F8207057
:1049A000734047FA0CF68AEA0407DDF81CA04BEACC
:1049B000020240EA0A0CDDF814B0481BD8F82010B7
:1049C000CBEB0303B44218BF39464CEA020218434A
:1049D00001FA09F41043C8F8204012B0BDE8F00F06
:1049E0007047C9F11F070268D0F88030012101FA31
:1049F00007F101F1FF3CD417D9178CEA04068CEAC1
:104A0000010542FA07FB43FA07FA5C4518BF324634
:104A1000514518BF2B4602FA09F203FA09F3026066
:104A2000C0F88030D8F800600792F5178CEA0501CD
:104A300046FA07F4A54218BF0E4606FA09F2C8F86E
:104A40000020D0F800210893D0F88031D417D9176E
:104A50008CEA040A8CEA010542FA07FB43FA07F6DE
:104A60005C4518BF5246B14218BF2B4602FA09F204
:104A700003FA09F3C0F80021C0F88031D8F80460C7
:104A80000392F5178CEA050146FA07F4A54218BF10
:104A90000E4606FA09F2C8F80420D0F88022D0F8B1
:104AA00000120293D417CD178CEA050A42FA07F6D2
:104AB00041FA07FB8CEA04035D4518BF5146B44236
:104AC00008BF134603FA09F501FA09F2C0F80022FB
:104AD000C0F88052D8F808600492F3178CEA0301FA
:104AE00046FA07F4A34218BF0E4606FA09F2C8F8C0
:104AF0000820D0F80023D0F880330595D417D917B3
:104B000042FA07FA43FA07FB8CEA01058CEA04062D
:104B1000544508BF164659450CBF1A462A4606FAA0
:104B200009F402FA09F3C0F80043C0F88033D8F85A
:104B30000C600694F5178CEA050146FA07F29542D7
:104B400018BF0E4606FA09F4C8F80C40D0F8002445
:104B50000993D0F88034D417D9178CEA04068CEA6C
:104B6000010542FA07FA43FA07FB544518BF3246DB
:104B7000594518BF2B4602FA09F403FA09F30A94BF
:104B8000C0F80044C0F88034D8F810600B93F517D3
:104B90008CEA050146FA07F2954218BF0E4606FA5E
:104BA00009F4C8F81040D0F80025D0F88035D417A3
:104BB000D91742FA07FB43FA07FA8CEA04058CEA94
:104BC00001065C4508BF1546514508BF1E4605FA5B
:104BD00009F206FA09F3C0F80025C0F88035D8F8C4
:104BE00014500C92EE178CEA060145FA07F4A6421F
:104BF00018BF0D4605FA09F2C8F81420D0F80026AF
:104C00000D93D0F88036D417D9178CEA04068CEAB5
:104C1000010542FA07FB43FA07FA5C4518BF324622
:104C2000514518BF2B4602FA09F403FA09F1C0F8FE
:104C30000046C0F88016D8F818600E94F5178CEA74
:104C4000050346FA07F2954218BF1E4606FA09F414
:104C5000C8F81840D0F88037D0F800270F91D9173E
:104C6000D4178CEA010543FA07FA514518BF2B46C1
:104C70008CEA040642FA07FB5C4518BF324603FA89
:104C800009F3039CC0F8803702FA09F21193039BE1
:104C9000C0F80027E117D8F81CB0029E10924B40D4
:104CA0000393029B049A4FEAEB75F4174BFA07FA49
:104CB0008CEA05066340029355450CBF5B463346BC
:104CC000049E059DD2174FEAE57A82EA060B029D03
:104CD000039E2C1B751A059E03FA09F1069BC8F862
:104CE0001C10D9178AEA0603069E0293029BC2EBA8
:104CF0000B0281EA060B0A9E2C43099D1443CAEB62
:104D00000302F317099EED176E4003961443D0F883
:104D10008068D0F800280494C1EB0B0B0B99CC17DA
:104D2000D117F21701920A9E049A83EA060A42EA10
:104D30000B0B039E0B9ACDF808B0C3EB0A0AD0F810
:104D40000038C5EB060B84EA0206029A0C9D3B4133
:104D500042EA0B0B04938CEA0102D0F880380592EA
:104D6000019A3B4106938CEA02030D9A0293D317F2
:104D70000C9AED176A404BEA0A0B0A92341BDDF8D5
:104D800014A0D0F80068CDF82CB0DDF810B0D0F841
:104D90008028594518BF56463146DDF804A0029ECA
:104DA000DDF818B0DA4518BF3246DDF82CA00E9EAB
:104DB0004AEA040A01FA09F10A9C0391651B02FA06
:104DC00009F2039C0292C0F800480D9A029CF11768
:104DD000C0F8804883EA02060E980F9AF31A109ED4
:104DE00081EA000B4AEA0504C1EB0B0BF5170799A2
:104DF000089E0495D2172343CC17F5170499109EEB
:104E00000F98714043EA0B0BD8F82060029B059184
:104E1000D917F317079E82EA000A6640C2EB0A0A16
:104E20001198039A0796089E6E404BEA0A0B089663
:104E3000119ECDF824B0C017DDF810B0DDF814A035
:104E400046400696CBEB0A06DDF820A0DDF81CB044
:104E5000C5EB0A050495099D45EA060A069E039DD1
:104E6000D217301A82EA0506029DC4EB0B0481EAD0
:104E7000050BD8F82050B21A45FA07F7D8F8206089
:104E8000049D8CEA030C4AEA000AC1EB0B0125439E
:104E9000BB4218BF664641EA020045EA0A0406FA28
:104EA00009F12043C8F8201097E500BF2DE9F04F25
:104EB000D9B040913B92002801F0D6870368002BBF
:104EC00001F0D28744683F94002C01F0CD87C5687B
:104ED0000D95002D01F0C88740693C90002801F035
:104EE000C3871A783B9F5D6BDDF8EC80CE00002A0B
:104EF00014BF06230823FC00711835F913204294CF
:104F000008013F9D4196444400EBC406AF1948F6A2
:104F10003963C3F6E30383FB0261D017FE6BC0EB7A
:104F2000A10215B2022E3D9501F0798708F5906136
:104F3000DDF834A016915AF8217040F226229742EB
:104F400040F3118640F236282023CDF838801F2701
:104F50002B93429A3B9B0D9DD618002F05EB0628FC
:104F600041F37187994BCDF848809969DA690891C6
:104F7000196A099203915A6A996A059203F10C0021
:104F8000DA6A0A91196B1E685D689C680B9290E85A
:104F9000010C5A6B0C91996BDB6B07920493069191
:104FA00043460F9648330F9E53F804CCD3F8008045
:104FB000614686FB0121424685FB0292891A4A001E
:104FC00043F8042C424686FB0212664685FB06C661
:104FD00053F808CCD3F8048091194A001A60664649
:104FE00084FB0626414680FB0191721A560043F865
:104FF000086C424684FB0212614680FB01C153F8F3
:105000000CCCD3F80880561872005A6061468AFBAF
:10501000012146468BFB06968A1B510043F80C1C67
:1050200046468AFB061662468BFB02C253F810CC3A
:10503000D3F80C80B1184E009E60089A614682FB3E
:105040000161099E424686FB02928E1A710043F866
:10505000101C089E424686FB0212099E614686FB92
:1050600001C153F814CCD3F8108056187200DA60DE
:10507000039E614686FB0121059E424686FB029205
:105080008E1A710043F8141C039E424686FB0212DE
:10509000059E614686FB01C153F818CCD3F81480F5
:1050A000561872001A610A9E614686FB01210B9E0A
:1050B000424686FB02928E1A710043F8181C424643
:1050C0000A9E86FB021261460B9E86FB01C153F8C5
:1050D0001CCCD3F81880561872005A6161460C9E99
:1050E00086FB01214246079E86FB02928E1A7100C2
:1050F00043F81C1C42460C9E86FB02126146079E2A
:1051000086FB01C153F820CCD3F81C8056187200DE
:105110009A616146069E86FB01214246049E86FBFB
:105120000292891A4A0043F8202C069981FB08282C
:1051300086FB0C2C08EB0C094FEA4906013FDE61A7
:105140007FF430AF419C409D3B99429BDDF8488005
:10515000601906015A183F9C06EBC207E5198946FB
:10516000286C8A468C46169D0D9E0E9A56F8253060
:1051700048F639619A42A8BF134603F11107C3F6F6
:10518000E30181FB0741FC1746F8253009F5D86992
:10519000C4EBA1050AF2C26A0CF2C46C3C9E3C9AB4
:1051A0003C9956F8293052F82A7051F82C40CDF825
:1051B0000C91CDF810A1CDF814C13A9529932797F9
:1051C0002694002801F01E8602E000BFD05A010894
:1051D000419D409EDDF8EC90429B3C9CAA1909F24F
:1051E00082400D9D03EB0907110101EBC70204EB9F
:1051F000C71655F820303F98259304EB07272B9CC2
:105200002897283206F590518218002C3E911E9264
:1052100041F3FC8524314EF6A13341F67E2745F655
:10522000EE2B42F2247A0E914DF649503E99CDF87C
:10523000B48041F628420025C3F2186BC6F6D96344
:10524000C1F23A67C5F24620CCF2E92AC4F23172C3
:10525000CDF87CB0169507950A930B970C90CDF876
:10526000B0A02A92C346894692E3DBF84470DBF88B
:10527000300009970BF1340191E8F000099BDBF84D
:105280002C10DBF82820C3EB070ACAEB0606AD1B7F
:10529000641B071BC91BDBF824000595551ADBF8B6
:1052A00020201097431BDBF81C70D01A3A1A099F74
:1052B000F61BA41B1194DDF844C0DBF81870179698
:1052C000CCEB01015B1A1293DDF84880DBF8146027
:1052D000DBF810400F91BF1ADBF80C10C8EB02028C
:1052E000F61BA41BB61A0B1B0896DBF808101C92C1
:1052F000DDF820C0DBF80420CE1A921BCCEB0303B0
:10530000DBF800100693C3EB02080023891A04930C
:105310004B1072190599139320924FEA6808109A5E
:10532000CDF860807318DDF84C802099C0EB040C38
:10533000C2EB08082018CA1A5444CAEB0C0ACDF86C
:105340005080CDF854A02192DDF828A0B8468AFB01
:105350000878DDF814C0CDF88880751BCCEB050704
:1053600039468AFB01514BF68B6C0D91C6F20D2C20
:1053700080468CFB08580B9F264687FB0656251A4D
:105380008CFB054587FB0040DDF830A014468AFB06
:10539000042442F63261C7F60E61059181FB0323B6
:1053A0002099574687FB01A1219A059F87FB02A2FE
:1053B000770007EB4806DDF84CA0109F0AEB670862
:1053C000DDF888A05B0003EB44034FEA4A07149C16
:1053D000DDF854A052004000C2EB410204EB6A0425
:1053E000DDF834A0C0EB4505D11A08EB0700109199
:1053F000C7EB08074FEA4A0100EB060A06EB05086F
:10540000CDF834A007EB050ACDF888A04519C8EB04
:10541000070ABF19C8EB00080F9E0698CDF864A0D4
:105420008019DDF818A0179E13900AEB0600129E53
:10543000DDF820A0C6EB0A0ACDF8B8A0DDF834A04C
:105440009A44CDF880A0DDF888A066189244219691
:10545000CDF888A0199EDDF840A0CAEB0606199683
:10546000DDF854A0149ECAEB06061496DDF844A09D
:10547000109E641A18992394AA1AB044CAEB010525
:1054800015922E99099ACDF84080FB1ADDF82080FC
:10549000129F139E0D958D1A2493089508EB070310
:1054A00008EB0204DDF870A0DDF82880371A88FBCD
:1054B0000A1A069A0F9E179D911B4A1B88FB02121F
:1054C00009921E468CFB0616DDF82C80214688FBCF
:1054D0000151E41A8CFB045488FB0353DDF830C0FF
:1054E000B8468CFB0858059A82FB0050DDF84CC08A
:1054F0000C9A82FB0C5C3A46059F87FB02524F00D8
:105500005B0007EB4601C3EB4405119E189C4FEA74
:105510004A0A04EB66075200CAEB070407EB0A06C7
:10552000C2EB4C020D9FDDF820C0400000EB4803A9
:1055300007EB6C00059006EB010A099FCDF818A057
:1055400001EB0508780004EB050AC8EB04077519A0
:10555000C8EB0608069E61189C19059E06949244A5
:105560003418CDF848A00D9EDDF820A00994C3EBB7
:10557000020CCAEB0604C2EB050A059A0894CC1A81
:105580001B9BCCEB0707101A0F97C4440590002B08
:1055900040F0EE841A9D002D40F0F6824EF65C310C
:1055A000C0F6273181FB04240E9E249F56F8240C5C
:1055B000BA104CF68B68A51A4342A418C4F2AA2864
:1055C00046F8244C41465E1B86FB01412C9A05EBB4
:1055D000810786FB0242C0EB82031D9C289D039E2F
:1055E0002F51FA17D81782EA070180EA0307C6F895
:1055F00080388A1A381A4FF68333059940EA020434
:10560000C2F2201383FB0121239FD9F80450B81064
:105610000E1A0B186A42C9F804302A99971B87FBA7
:10562000013146F29A13CCF65F1306EB810187FB3A
:105630000303C5EB8307C817FA1780EA0105039E29
:105640002B1A82EA0705C6F880101C43A91AC6F86F
:1056500000780C431F9F504687FB0030DDF854A0B4
:10566000D9F808604FEAAA0248F6EB718318871A46
:105670007542C4F68621C9F80830EA1B084682FB49
:10568000003049F68C53CDF2850307EB800082FB96
:105690000353C717C6EB830387EA0006DA17F51B27
:1056A000039F82EA0306C7F80001C7F880372C433E
:1056B000B01A4FF2E23344EA0005C4F66A1383FBE2
:1056C0000C2CDDF840A0D9F80C604FEAAA0443F690
:1056D0005130C4EB0C070CEB04037242C4F691404A
:1056E000C9F80C30D21B044682FB043443F6A06395
:1056F000CDF6240307EB840482FB0373C6EB83031C
:10570000E617DA17DDF80CC086EA0407BE1B82EA4A
:105710000307CCF880413543BC1A47F69A16CCF8FB
:1057200000372C43089BC5F6822686FB0323149A78
:10573000D9F81050921043F6CC479E1AC4F6415740
:105740009B186A42C9F81030921B3B4682FB0373D8
:1057500006EB83064FF0604382FB0373C5EB8303C4
:10576000F517DA1785EA0607DDF80CA07D1B82EA3B
:105770000307CAF80062CAF88036BE1A2C434FF6F7
:10578000641344EA0605C6F6D9030F9F83FB072777
:10579000DDF864C0D9F814404FEAAC02BB18BE1A59
:1057A0006742C9F81430BA1B82FB00304CF2611317
:1057B000CEF2DB7306EB800082FB0363C4EB83074E
:1057C000C417FA1784EA0006331B82EA0706CAF8F0
:1057D0008002CAF800764EF2C14045EA0307B51AC6
:1057E0002F43C7F20140DDF848A080FB0A2A229A25
:1057F000D9F818409310C3EB0A060AEB0305604280
:10580000C9F81850821B82FB013146F27523CEF68F
:105810007A7306EB810182FB0353CE17C4EB83043A
:1058200086EA0105E217A81B039E82EA0403C6F874
:105830008045384347F21D549F1AC6F80013384379
:10584000C7F6A334099A84FB02122199D9F81C40A7
:105850008B10D718D51A6242C9F81C702A99571BA9
:1058600087FB013149F66763CFF2A06305EB810145
:1058700087FB0353C4EB8307CC17FA1784EA0105AF
:105880002B1B82EA0704C6F88013C6F80075A11A1C
:10589000184344F6D0670843C7F68377069987FB19
:1058A0000121DDF880C0D9F820404FEAAC028B1806
:1058B0008D1A6742C9F820307A1B414682FB0131BC
:1058C0004DF6DD03CFF6165305EB810782FB03533C
:1058D000C4EB830AFD174FEAEA7185EA070481EAFF
:1058E0000A03621B5D1A049BC6F800741043C6F8D5
:1058F00080A440EA0508002B40F03483079EF1079E
:1059000040F14483039E0399D6F88005D1F8807155
:10591000D1F88052D6F88043D6F88016D6F8802782
:10592000D6F88038D6F88060CAF1000CDDF80CA0FB
:1059300040427F4276426D426442494252425B425B
:10594000CAF880050498CAF88060CAF88071CAF85D
:105950008052CAF88043CAF880C4CAF88016CAF8D0
:105960008027CAF88038079F169EDDF8ACC040EA51
:1059700008080E987C1C243046EA08056445079404
:1059800016950BF1480B09F124090E9000F00083E5
:105990001E9C6369A6691A932EB13D9D079FBD4267
:1059A000C8BF00231A930799279A079C269EDDF803
:1059B000A080259D8800B442B8BF002208EB0003F8
:1059C000062D1D901B9203933FF74FAC2A46D9F842
:1059D0002070DBF84030DBF84400D9F81C60D9F8BF
:1059E0001850D9F81040C2F10701049147FA01F7A5
:1059F000C9F82070049FDBF83820DBF83C1046FA29
:105A000007F6C9F81C60049E40FA07F043FA07FA4B
:105A100042FA06F8DBF83470D9F814200990C0EB8C
:105A20000A0A41FA06F10498DBF8303045FA06F527
:105A3000CAEB0101C9F81850C1EB080C024147FA42
:105A400000F7DBF82C60DBF82850C9F81420CCEB09
:105A5000070743FA00F2D21B109244FA00F4DBF875
:105A60002080DBF82430C9F81040109CCDF814C019
:105A700046FA00F6321B45FA00F5049CDBF818C024
:105A8000DBF81C6043FA00F3D9F80C002041C9F898
:105A90000C0048FA04F0DBF81040DBF8148008949E
:105AA000049C46FA04F60696D9F80860AD1A264119
:105AB0005B1B069CC9F80860C01A261A099C091BC2
:105AC000049C17914CFA04F1DBF80840DBF80CC099
:105AD0000694179C3F1B1197049C8F1BD9F8041048
